:020000040000FA
:10000000A01DFF1FBD04000033260000C704000030
:10001000C9040000CB040000CD0400000000000073
:10002000000000000000000000000000CF040000FD
:10003000D104000000000000D3040000D50400003B
:10004000A92F0000BF2F0000D52F0000EB2F0000CC
:10005000193000002F300000453000005B300000F8
:1000600071300000873000009D300000B330000088
:10007000C9300000DF300000F53000000B31000017
:10008000D7040000D7040000D7040000D704000004
:10009000D7040000D7040000696C0000D7040000FA
:1000A000C1520000E1520000DD5F0000FD5F000072
:1000B0001D60000017250000D7040000D7040000D1
:1000C000D7040000D7040000D7040000D7040000C4
:1000D000D70400003B250000D7040000D70400002F
:1000E000D7040000D7040000D7040000D7040000A4
:1000F000D704000015690000D704000079690000EA
:10010000D7040000DD690000D7040000416A000048
:10011000D7040000A56A0000D7040000D70400003F
:10012000D70400005D1D00006D1D0000D704000015
:10013000D7040000D704000069440000CF44000049
:1001400035450000D7040000795A0000D7040000AC
:100150008D560000A9560000C5560000E15600006B
:10016000D7040000D7040000D7040000D704000023
:100170004937000065370000D7040000D7040000AD
:10018000D7040000332B0000992B0000916300007E
:10019000D704000019550000D7040000974A00005A
:1001A000BD4A0000E34A0000094B00002F4B00004D
:1001B000D7040000D7040000D7040000D7040000D3
:1001C000D7040000D7040000D7040000D7040000C3
:1001D000D7040000D7040000D7040000D7040000B3
:1001E000D7040000D7040000D7040000D7040000A3
:10040000FFFFFFFFFFFFFFFFFFFFFFFFFEFFFFFFFD
:1004100000F002F800F041F80AA090E8000C8244D5
:100420008344AAF10107DA4501D100F036F8AFF2B2
:10043000090EBAE80F0013F0010F18BFFB1A43F0C2
:10044000010318472C9000004C900000103A24BF84
:1004500078C878C1FAD8520724BF30C830C144BF29
:1004600004680C607047000000230024002500266B
:10047000103A28BF78C1FBD8520728BF30C148BF07
:100480000B607047642906F04584002070471FB553
:1004900007F0BFFF1FBD10B510BD06F08FFD114660
:1004A000FFF7F5FF00F038F906F0ADFD03B4FFF7F4
:1004B000F2FF03BC06F0B2FDC0BA7047094880479E
:1004C00009480047FEE7FEE7FEE7FEE7FEE7FEE736
:1004D000FEE7FEE7FEE7FEE704480549054A064B4E
:1004E00070470000FD04000011040000A009FF1F78
:1004F000A01DFF1FA00DFF1FA00DFF1F4CF22050DD
:100500007D49C8814DF62810C8814FF4E9700880F4
:100510004FF0FF30794948640020794908707748E6
:10052000406820F0010075494860242075494870F2
:100530009A2008700846C07800F01F00C870032099
:1005400008710020487100BF6E48807910F0020FDA
:10055000FAD000BF6B48807910F0100FFAD100BFBD
:100560006848807900F00C000828F9D11820654906
:1005700008715A20487164486049486400BF614866
:10058000807910F0200FFAD000BF5E48807910F01B
:10059000400FFAD01A205B49087000BF5948807993
:1005A00000F00C000C28F9D100BF5648807910F0FB
:1005B000400FFAD07047534A127812F0C00F66D13C
:1005C000504A527912F0400F51D14E4A127812F02F
:1005D000040F18D14B4A127B12F0010F01D14B4886
:1005E00001E04FF40040474A1278C2F3C2030122EF
:1005F0009A40D1B2B0FBF1F0424A527812F0300F7B
:1006000003D0400901E04FF400403E4AD27802F0A6
:10061000E00212F01F0F28D15211082A25D2DFE87C
:1006200002F004080C1014181C2000EB8002D0010A
:100630001CE000EB8002100218E0C0EB0012D001B9
:1006400014E000EB8002500210E04FF43772504388
:100650000CE04FF4B762504308E040F69502504377
:1006600004E040F67132504300E000BF38E0254A14
:10067000127902F01F02511C244AB2FBF1F0214A08
:10068000527902F01F0202F11801484328E01D4A86
:10069000127802F0C002402A11D11A4A527812F0A0
:1006A000010F02D14FF400401AE0164A127AC2F349
:1006B000420301229A40164BB3FBF2F010E0114ABC
:1006C000127802F0C002802A09D10E4A127B12F081
:1006D000010F01D10D4803E04FF4004000E07047E6
:1006E000064A526C012303EB1272B0FBF2F2094B83
:1006F0001A6000BFF3E700000020054000800440BE
:1007000000500640004006400000130180F0FA024D
:1007100000093D000000FF1F00F0CBF800F0DDF8FD
:100720000CA20221012000F01CFE00F093F900F061
:100730008BFE0DE00021042004F0CFF800F0EFF86C
:100740000446204600F0F8F80548006800F010F96B
:10075000F0E70000566F6C74616765203D20000073
:100760000400FF1F10B504220221084604F073F8AC
:1007700000220221084604F07DF83222002145F2D1
:10078000C10003F07AFC40F2EE220021012003F0C8
:100790002AFC40F6B832002144F2103003F06DFC20
:1007A00040F2DC520021084603F01DFC10BD10B5DC
:1007B0000021814801F035FA0021804801F031FA2A
:1007C00010BD10B54FF4E13149F6C04006F076F89F
:1007D00010BD10B504F054FE7949086004F090FE95
:1007E00010BD10B57749002004F0E7FEAFF21D01FF
:1007F000002004F040FF0121002004F0E8FE10BDBD
:1008000010B5714804F045FE10BD10B5042200215A
:10081000104604F020F800221146042004F02AF8C3
:1008200004220221012004F016F8042211460120BE
:1008300004F011F802220C21104604F00CF80222F8
:100840000D21104604F007F802220E21104604F094
:1008500002F802220F21104603F0FDFF02221021B0
:10086000104603F0F8FF02221121104603F0F3FFB7
:1008700002221221104603F0EEFF0222132110463D
:1008800003F0E9FF10BD10B504220621032003F098
:10089000E2FF04220721032003F0DDFF04220821E8
:1008A000032003F0D8FF04220921032003F0D3FF23
:1008B00010BD10B5FFF7E7FF00F0B6FBFFF7A5FF8F
:1008C000FFF79EFFFFF78DFFFFF77BFFFFF76FFF3F
:1008D000FFF748FF00F0B8FD10BD2DE9F05F374885
:1008E00001F01DFA834607F010FB80460022374BCB
:1008F00007F048F906460022354B07F031FB044665
:1009000007F052F882465046BDE8F09F002100BF34
:1009100002E000BF4A1CD1B28142FADB704710B539
:1009200000F058F800F01EF900F07BF9044600F0E2
:1009300065F900F08FF910BD2DE9F0410646324609
:100940000021012000F0B8FD074607F0DEFA04465A
:100950000D462046294600F01DFF804607F0F4FCB6
:1009600007463A460021012003F03DFBBDE8F08137
:1009700070B5054600222946104600F09DFD04444E
:10098000B4F57A7F05DB4FF47A720021084603F054
:100990002AFB002C07DDB4F57A7F04DA2246002119
:1009A000084603F020FB002C04DC00221146104610
:1009B00003F019FB70BD00000840400021443000E6
:1009C0000400FF1FA0860100104B100000408F4064
:1009D00000B4B44010B500220421012003F04AFF06
:1009E00000BF01220221104603F044FF00BF012294
:1009F0000421104603F03EFF00BF00220221012027
:100A000003F038FF00BF002414E00022042101207D
:100A100003F030FF00BFAB4801F081F9C1B2AA4A30
:100A2000A01C115401220421104603F023FF00BF33
:100A3000601CC4B2802CE8DB00BF012204211046F8
:100A400003F018FF00BF00220421012003F012FF71
:100A500000BF10BD10B5002400220421012003F0C6
:100A600009FF00BF01220221104603F003FF00BF6F
:100A700001220421104603F0FDFE00BF00220221E6
:100A8000012003F0F7FE00BF01240DE00022042145
:100A9000012003F0EFFE00BF01220421104603F005
:100AA000E9FE00BF601CC4B2812CEFDB10BD30B585
:100AB0000146002314E000220CE08D5C501C085C11
:100AC000854205DD8C5C501C085C8854501C0C541D
:100AD000501CC2B2C3F105009042EEDC581CC3B2F8
:100AE000052BE8DBC87830BD02468A4201DC10469F
:100AF00070470846FCE72DE9F04705460E461446C8
:100B0000089F31462846FFF7EFFF82462146FFF750
:100B1000EBFF81461946FFF7E7FF80463946FFF7AE
:100B2000E3FFBDE8F08702468A4201DB10467047CA
:100B30000846FCE72DE9F04705460E461446089F97
:100B400031462846FFF7EFFF82462146FFF7EBFFCD
:100B500081461946FFF7E7FF80463946FFF7E3FF76
:100B6000BDE8F0872DE9FE41002443E00025A046C2
:100B70000CE0554810F8080001A948552846691CA2
:100B8000CDB2204400F0FF08681CC5B2052DF0DB93
:100B90009DF8080000909DF807309DF806209DF80C
:100BA00005109DF80400FFF7C5FF07469DF80800F3
:100BB00000909DF807309DF806209DF805109DF8DF
:100BC0000400FFF798FF06463F49A01C085CB842A6
:100BD00003D0A01C085CB04205D101A8FFF767FF55
:100BE0003A49085504E03849A01C085C37490855C3
:100BF000601CC4B2802CB9DBBDE8FE810146002038
:100C00000CE0324A125C8A4203DBFF222F4B1A545B
:100C100002E000222D4B1A54421CD0B28028F0DB97
:100C2000704730B500230DE02848C15C2846FFF727
:100C30007AFF05462548C15C2046FFF755FF04466C
:100C4000581CC3B2802BEFDB291901EBD170C0F324
:100C5000470030BD2DE9F04700240BE0C4F140000F
:100C60001A49085C18B9C4F14000C5B204E0002577
:100C7000601CC4B2402CF1DB00BF00240BE004F187
:100C800040001249085C18B904F14000C7B204E002
:100C90007F27601CC4B2402CF1DB00BF2E46B84653
:100CA00031460BA005F0F4FF41460DA005F0F0FF22
:100CB000781B00EBD07105EB610101F0FF0948469C
:100CC000BDE8F08708404000DC00FF1F6001FF1F07
:100CD0004C6566745F53696465203D2025640A0095
:100CE00052696768745F53696465203D2025640A12
:100CF0000000000010480068704700B5FFF7FAFFD9
:100D00000346C3F30332C2EB421000F59B71322954
:100D100000D23221084600BD00B5FFF7EBFF0346C5
:100D2000C3F30341072902D901F1260201E0C1F111
:100D30002D02104600BD000090F00F4070B5044633
:100D4000082501220621032003F094FD002208213A
:100D5000032003F08FFD1AE014F0800F05D001226C
:100D60000921032003F086FD04E00022092103206D
:100D700003F080FD01220821032003F07BFD00BF6A
:100D800000220821032003F075FD6006040E2800F0
:100D9000A5F10101CDB2DFD170BD70B504460825C3
:100DA00000220621032003F065FD00220821032014
:100DB00003F060FD1AE014F0800F05D00122092134
:100DC000032003F057FD04E000220921032003F073
:100DD00051FD01220821032003F04CFD00BF002239
:100DE0000821032003F046FD6006040E2800A5F14B
:100DF0000101CDB2DFD170BD70B504460D4605F1DD
:100E0000B001C8B2FFF7C9FF102141EA1410FFF783
:100E1000C4FF04F00F0141F00100FFF7BEFF70BDF9
:100E200070B50646002415E004F1B001C8B2FFF722
:100E3000B4FF0120FFF7B1FF1020FFF7AEFF002540
:100E400004E03046FFF77AFF681CC5B2802DF8DB5E
:100E5000601CC4B2082CE7DB70BD70B5002415E03F
:100E600004F1B001C8B2FFF798FF0120FFF795FF2A
:100E70001020FFF792FF002504E00020FFF75EFF3F
:100E8000681CC5B2802DF8DB601CC4B2082CE7DBFF
:100E900070BD07E040F2375100BF0A00A1F1010127
:100EA000FBD1401E0028F5D1704710B504462046FE
:100EB000FFF773FF10BD70B504462546E11704EB3C
:100EC00011710911A4EB0111C8B2FFF766FF2546A5
:100ED000E11704EB1171091101F11000FFF75DFF3B
:100EE00070BD10B504462020FFF757FF2046FFF7DE
:100EF00054FF10BD70B505460C462120FFF74DFF8D
:100F00002846FFF74AFF2046FFF747FF70BD70B540
:100F100005460C462220FFF740FF2846FFF73DFF1D
:100F20002046FFF73AFF70BD10B5044644F040007C
:100F3000FFF733FF10BD10B504468120FFF72DFFEA
:100F40002046FFF72AFF10BD10B504468D20FFF79D
:100F500024FF44F01000FFF720FF10BD10B5044639
:100F600044F0A000FFF719FF10BD10B5044644F08F
:100F7000A400FFF712FF10BD10B5044644F0A60010
:100F8000FFF70BFF10BD10B50446A820FFF705FFC3
:100F90002046FFF702FF10BD10B5044644F0AE0036
:100FA000FFF7FBFE10BD10B5044644F0B000FFF79C
:100FB000F4FE10BD10B5044644F0C000FFF7EDFE8E
:100FC00010BD10B50446D320FFF7E7FE2046FFF71B
:100FD000E4FE10BD10B50446D520FFF7DEFE204626
:100FE000FFF7DBFE10BD10B50446D920FFF7D5FE94
:100FF0002046FFF7D2FE10BD10B50446DA20FFF7F9
:10100000CCFE44F00200FFF7C8FE10BD10B5044648
:10101000DB20FFF7C2FE2046FFF7BFFE10BD10B574
:10102000E320FFF7BAFE10BD10B50122082103200E
:1010300003F020FC00220721032003F01BFC3220D8
:10104000FFF727FF01220721032003F013FC0020F4
:10105000FFF7A2FF8020FFF7BDFF3F20FFF793FFC0
:101060000020FFF7AEFF0020FFF75EFF0420FFF730
:101070006BFF0220FFF735FF0120FFF76FFF08200D
:10108000FFF798FF1020FFF7B7FFCF20FFF753FFC0
:10109000F120FFF7A8FF4020FFF7B8FF0020FFF77F
:1010A00064FF0020FFF768FF0120FFF775FF0020B5
:1010B000FFF7B6FE00210846FFF79EFE10BD70B593
:1010C00005460C4621462846FFF796FE2046E117C6
:1010D00004EB5171C910A4EBC10201219140CEB2C1
:1010E000B02101EBE401C8B2FFF757FE102141EA3D
:1010F0001510FFF752FE05F00F00FFF74EFE3046C9
:10110000FFF71CFE70BD2DE9F04707460C469046E0
:101110001D46DDF820A0E1103846FFF76DFE3E4683
:1011200013E0A146E11704EB5171C910A4EBC10211
:1011300001219140C8B2FFF701FEBAF1010F02D1BF
:101140003220FFF7A6FE701CC6B24645E9DDE91065
:101150003846FFF751FE3E4613E0A946E91705EB76
:101160005171C910A5EBC10201219140C8B2FFF72E
:10117000E5FDBAF1010F02D10520FFF78AFE701CD0
:10118000C6B24645E9DDBDE8F0872DE9F0470446E3
:10119000884615464FF000090026002720E0E85D4C
:1011A000203800F0FF097E2C04DD002408F1010046
:1011B00000F0FF0841462046FFF71EFE002609E02A
:1011C00009EB49019C4A02EB4101885DFFF7B6FD3E
:1011D000701CC6B2062EF3DBA01DC4B2781CC7B2C9
:1011E000E85D0028DBD1BDE8F0872DE9F047064631
:1011F0000F46904600250024A14631E018F809006A
:101200002038C5B2782E02DD0026781CC7B23946D8
:101210003046FFF7F1FD002407E004EB0511874A93
:10122000505CFFF78BFD601CC4B2082CF5DB781C0A
:10123000C1B23046FFF7E0FD002408E004EB0511E1
:1012400008317E4A505CFFF779FD601CC4B2082C5F
:10125000F4DB06F10800C6B209F1010000F0FF0955
:1012600018F809000028C9D1BDE8F0872DE9F0473A
:1012700081460F4690460024002601256BE000249D
:10128000012513E06E48005D18F8061088420BD166
:101290006B49601C095C701C18F80000814203D186
:1012A000C4EBC400450005E0A01CC4B26448005D66
:1012B0007F28E7DC00BFB9F1760F03DD4FF00009AE
:1012C000781CC7B239464846FFF796FD012D1FD05E
:1012D00039464846FFF790FD002406E05949485D2D
:1012E000FFF72CFD6D1C601CC4B20E2CF6DB781CC5
:1012F000C1B24846FFF780FD002406E05149485D31
:10130000FFF71CFD6D1C601CC4B20E2CF6DB1CE04C
:10131000701CC6B239464846FFF76EFD002404E053
:101320000020FFF70BFD601CC4B2102CF8DB781C0A
:10133000C1B24846FFF760FD002404E00020FFF73B
:10134000FDFC601CC4B2102CF8DB09F10E0000F0AB
:10135000FF09B01CC6B218F8060000288FD1BDE8FE
:10136000F087F8B506460F461546002427E0285DAD
:101370007F2814DD285D8DF80000601C285C8DF846
:10138000010000208DF802006A4639463046FFF71A
:101390006DFF06F10E00C6B2A01CC4B20FE0285DBE
:1013A0008DF8000000208DF801006A46394630466D
:1013B000FFF71BFF06F10800C6B2601CC4B2285D2F
:1013C0000028D4D1F8BD2DE9F05F06460F469046BF
:1013D0001C46DDF828A04FF0000BE11704EB51711B
:1013E000C910B4EBC10105D12046E11704EB5171DE
:1013F000CD1005E02046E11704EB5171C9104D1CDA
:101400003D4614E029463046FFF7F6FCB1460AE0B7
:1014100059460BF1010B1AF80100FFF78FFC09F197
:10142000010000F0FF09C145F2DB681CC5B2A5420E
:10143000E8DDBDE8F09F00001A850000188A000072
:10144000428700005C87000010B50020A5490968AC
:101450000862A4490968486200214FF08040A14A0F
:101460001268C2E902109F4A1268116151619D4AD7
:1014700012689161D161FFF740FC9A4909680860E0
:10148000002098490968886496490968C864002161
:101490009548944A1268C2E90C100020914A1268DB
:1014A0009063D06391488F4A1268C2E910104020BF
:1014B0008C490968886210BD2DE9F74F8EB08346CC
:1014C000BBF1000F7ED18748006801680F980F1AA2
:1014D000B846414686A005F0DBFB381E01DB01461D
:1014E00000E0414214292DDD7E490968086A06F0B2
:1014F0000CFDCDE906017B48006841690069CDE932
:101500000401DDE9062306F02BFDCDE90A0138468A
:1015100006F0FBFCCDE9060172480068C1688068EE
:10152000CDE90401DDE9062306F01AFDCDE9080145
:10153000DDE90A2306F06AFACDE90C0106F0B6FCF3
:10154000824647E067490968486A06F0DEFCCDE953
:10155000060164480168D1E90601CDE90401DDE92D
:10156000062306F0FDFCCDE90A015E490968086A18
:1015700006F0CBFCCDE902015A48006841690069D8
:10158000CDE90001DDE9022306F0EAFCCDE9060120
:10159000384606F0BAFCCDE9020152480068C1683D
:1015A0008068CDE90001DDE9022306F0D9FCCDE930
:1015B0000401DDE9062306F029FACDE90801DDE999
:1015C0000A2300E018E006F021FACDE90C0106F04C
:1015D0006DFC8246D146494649A005F059FB414879
:1015E0000068006A3F49096848623E48006807622F
:1015F000504611B0BDE8F08F3A480068816A1098F3
:10160000401A40B24249087036480068006891F9B3
:10161000001001EB81013E4A92F9002011FB02000B
:101620003049096808602F480068006A384909781D
:10163000081A46B2B146494636A005F029FB002EED
:101640000CDB16FB06F1052212FB0611C81C06F086
:101650005CFC244A1268C2E90C010BE016FB06F19F
:10166000052202FB1611C81C06F04FFC1D4A126829
:10167000C2E90C011B490968086A06F046FCCDE97D
:10168000080118480168D1E90601CDE90601DDE944
:10169000082306F065FCCDE90C011D4890F9000017
:1016A00006F033FCCDE908010E480168D1E90C01D0
:1016B000CDE90601DDE9082306F052FCCDE90A0177
:1016C000DDE90C2306F0A2F904460D46104890F916
:1016D00000000449096888642046294606F0E6FBB4
:1016E00087E700000800FF1F0000084000001440CA
:1016F000694572726F72203D2025640A0000000067
:1017000069496E63706964203D2025640A00000009
:101710000C00FF1F736C6F7065203D2025640A006C
:101720002DE9F04F8BB004460D46FFF7F5FAC0B235
:101730000190CDE90845264A264BDDE9080106F06F
:101740000FFCCDE90401019806F0F6FB804600226B
:10175000214B06F003FD064606F0ECF882465246A1
:101760000B4600201D4906F00DFACDE9060104A83C
:101770000FC806F007FA804605F0CAFF0646184A69
:10178000184B06F0EDFBCDE90201DDE902010BB0DB
:10179000BDE8F08F2DE9F04106460F464FF00002FC
:1017A00013463046394606F045FB08D000220E4B62
:1017B0003046394606F0D2FC04460D4601E00024CE
:1017C000094D2046294606F0EFF8BDE8F0810000FB
:1017D000E17A14AE47E1CA3F0080564000003A402B
:1017E000AA9F9622DCA54C40007087400246FA482A
:1017F00050F8220050F8210010F0800F01D0002096
:1018000070470120FCE770B5134633B1012B1CD0A3
:10181000022B25D0032B49D13DE0F04C225602F09B
:101820001F050124AC40EE4D560945F8264000BF87
:10183000E94A52F8202052F8212022F04002E64CDA
:1018400054F8204044F8212031E0E34A52F82020A7
:10185000126A22F00402E04C54F82040226226E092
:10186000DD4A52F8202052F8212042F04002DA4CA2
:1018700054F8204044F82120D84C225602F01F058D
:101880000124AC4055094FF0E02606EB8505C5F86C
:10189000004100BF0BE0D04A52F82020126A42F00B
:1018A0000402CD4C54F82040226200E000BF00BF8B
:1018B00070BDF0B50446C84850F82400406A40F0B6
:1018C0000300C54951F824104862C34850F8240069
:1018D000406A40F00300C04951F824104862BE48F5
:1018E00050F82400806840F00300BB4951F82410F0
:1018F0008860B94850F82400406A40F04000B6497A
:1019000051F824104862B44850F82400406A40F06E
:101910008000B14951F82410486200221146204647
:10192000FFF771FF002700E07F1CAE488742FBD322
:10193000A94850F82400406A10F0400F01D001205F
:10194000F0BD0025A44850F82400C06C0544A2480E
:1019500050F82400806C05449F4850F82400406CE7
:1019600005449D4850F82400006C05449A4850F8FE
:101970002400C06B0544984850F82400806B05444F
:101980004FF4004040EA55050026934850F82400E3
:10199000C06E0644904850F82400806E06448E487D
:1019A00050F82400406E06448B4850F82400006E26
:1019B0000644894850F82400C06D0644864850F813
:1019C0002400806D06444FF4004040EA56068248E9
:1019D00050F82400406A20F080007F4951F824101C
:1019E00048627D4850F82400C5627B4850F82400C6
:1019F00006630020A4E710B504467B49206851F82F
:101A000030000068784A216802EBC1014968084348
:101A1000216852F8311008602068FFF74AFF6E49CC
:101A2000206851F82000806820F003006A4A21688D
:101A300052F8211088601146206851F82000806813
:101A4000617901F003010843216852F82110886090
:101A50001146206851F82000006A20F00300216838
:101A600052F8211008621146206851F82000006ADF
:101A7000A17A01F003010843216852F8211008629D
:101A80001146206851F82000806820F00C00216881
:101A900052F8211088601146206851F820008068B3
:101AA000A1790C2202EA810108434B4A216852F8CD
:101AB00021108860207901280BD11146206851F847
:101AC0002000006A40F04000216852F821100862AE
:101AD0000BE04149206851F82000006A00F0400006
:101AE0003D4A216852F821100862207A60B93A49CB
:101AF000206851F82000406A40F00800364A21680A
:101B000052F8211048620BE03349206851F8200058
:101B1000406A20F00800304A216852F821104862DB
:101B2000607A05287AD2DFE800F00310263E6100D3
:101B30002949206851F82000406A20F00300264A15
:101B4000216852F82110486269E02349206851F861
:101B50002000406A20F003001F4A216852F821103B
:101B600048621146206851F82000406A216852F806
:101B70002110486253E01849206851F82000406A5B
:101B800020F00300144A216852F8211048621146DF
:101B9000206851F82000406A40F00100216852F8A6
:101BA000211048623BE00C49206851F82000406A4F
:101BB00020F00300084A216852F8211048621146BB
:101BC000206851F82000406A40F00200216852F875
:101BD0002110486223E021E00890000020900000DE
:101BE00080E100E0A08601001090000063492068B9
:101BF00051F82000406A20F00300604A216852F842
:101C0000211048621146206851F82000406A40F0D7
:101C10000300216852F82110486200E000BF00BFB5
:101C200010BD73B584B00E4604AC2068C0F302004A
:101C3000019001208DF809008DF80A6000208DF8D0
:101C400008008DF80B0001208DF80C0000208DF8A5
:101C50000D0001208DF80E00002518E02368C3F365
:101C60008212C3F344232B44D9B22368C3F3C200C6
:101C700002F09CFC2268C2F344222A44D1B22268BA
:101C8000C2F3C200002202F0B6FC681CC5B2206894
:101C9000C0F38430A842E1DC01A8FFF7ACFE206865
:101CA000C0F3020006B070BD10B5344B53F82030BD
:101CB00053F8223023F01F03304C54F8204044F8EE
:101CC00022302E4B53F8203053F8223001F01F04FD
:101CD00023432A4C54F8204044F8223010BD49B91F
:101CE000264A52F82020D26822F01002234B53F8E3
:101CF0002030DA60012909D1204A52F82020D26828
:101D000042F010021D4B53F82030DA607047024653
:101D10001A4850F82200103050F82100704771B571
:101D20006C462068C0F302052068C0F3C446002258
:101D300031462846FFF7B8FF00BF104850F825008D
:101D4000006810F0800FF8D000212846FFF7DFFF71
:101D500078BD11B10A4A42F82010704710B5084802
:101D6000006810B106490868804710BD10B50448E6
:101D7000406810B102494868804710BD08900000D3
:101D80001000FF1F0246072928D2DFE801F00409EE
:101D90000E13181D22005068F94B184350601FE0C5
:101DA0005068F84B184350601AE05068F64B1843DF
:101DB000506015E05068F54B1843506010E05068D3
:101DC000F34B184350600BE05068F24B18435060DF
:101DD00006E05068F04B1843506001E00120704766
:101DE00000BF0020FBE710B5EC4B53F820301B6818
:101DF00043F0A043E94C54F82040236000BFE74B78
:101E000053F820301B6813F0807FF8D0B2F5006FD4
:101E100009D3C2F31104E14B53F8203003F50863F2
:101E200043F8214009E0DE4B03EA8244DB4B53F8E0
:101E3000203003F5086343F82140D84B53F8203095
:101E40001B6823F0A043D54C54F82040236000BF0A
:101E5000D24B53F820301B6813F0807FF8D110BDAF
:101E600070B504460D461646324629462046FFF711
:101E7000BAFFB6F5006F41D3C84850F8240080304F
:101E800000EB0510006840F40011C44850F824002D
:101E9000803000EB05100160C04850F8240080300D
:101EA00000EB0510006820F48001BC4850F82400C5
:101EB000803000EB05100160B84850F824008030F5
:101EC00000EB0510406800F06041B44850F8240071
:101ED000803000EB05104160B04850F8240080309D
:101EE00000EB0510406826F060410843AB4951F80B
:101EF0002410803101EB0511486032E0A74850F80A
:101F00002400803000EB0510006820F4C001A348D5
:101F100050F82400803000EB051001609F4850F815
:101F20002400803000EB051040689D49C9430840FB
:101F30009A4951F82410803101EB05114860974807
:101F400050F82400803000EB05104168944800EA06
:101F500086400143914850F82400803000EB051082
:101F600041608E4850F82400803000EB0510006876
:101F700020F07061894850F82400803000EB051093
:101F80000160864850F82400803000EB051000689E
:101F900040F08061814850F82400803000EB05104B
:101FA000016070BD70B504467E49206851F830006C
:101FB00000687C4A216802EBC10149680843216836
:101FC00052F8311008607549206851F820004068C7
:101FD00040F40050714A216852F8211048601146BF
:101FE000206851F82000006820F00040216852F875
:101FF000211008601146206851F82000006840F068
:102000000070216852F82110086000BF6349206801
:1020100051F82000006810F0007FF7D1206851F8D7
:102020002000006840F0A0405C4A216852F821106E
:10203000086000BF5949206851F82000006810F07E
:10204000807FF7D0002526E00021544A206852F80E
:102050002000803000EB05100160206852F820005D
:10206000803000EB05104160206852F8200080307D
:1020700000EB05108160206852F82000803000EBF2
:102080000510C1604849206852F8200000F508603A
:1020900040F825106D1C102DD6D34049206851F80A
:1020A0002000006840F480303C4A216852F821103A
:1020B00008602179394B226853F82200FFF762FE4D
:1020C0003649206851F82000006820F0A040334ACB
:1020D000216852F8211008601146206851F820004C
:1020E000006820F0A040216852F82110086000BF6D
:1020F0002A49206851F82000006810F0807FF7D14D
:1021000000BF2649206851F82000006810F0006FD9
:10211000F7D170BD73B582B00E4602AC2068C0F333
:10212000020000908DF804606846FFF73BFF002531
:102130000CE02368C3F38212C3F344232B44D9B2C7
:102140002368C3F3C20002F031FA6D1C2068C0F3AB
:102150008430A842EDD82068C0F3020004B070BDFE
:1021600002460E4850F82200803000EB0110006853
:10217000C0F30363082B00D0C3B9002070470000F0
:102180000400A47C02009263020092310400A418AF
:1021900002009213020092090200920424900000AF
:1021A0000000FC1F2C900000FFFF0300012070477F
:1021B0002DE9FC4304460D4617469846DDF8249069
:1021C000002000900190102D02D2B9F1080F02DD1D
:1021D0000120BDE8FC8329462046FFF7C1FF08B176
:1021E0000220F6E7E44850F82400006B0121A940E2
:1021F0000843E14951F824100863002615E0042E35
:1022000009D218F80600C6F10301C90088400099F8
:102210000843009008E018F80600C6F10701C9005D
:102220008840019908430190761C4E45E7D3D24877
:1022300050F82400803000EB051000998160CE48F2
:1022400050F82400803000EB05100199C160CA48A5
:1022500050F82400803000EB0510006820F4702155
:10226000C54850F82400803000EB05100160C248DA
:1022700050F82400803000EB051000684FF4702106
:1022800001EA09410843BC4951F82410803101EBAF
:1022900005110860B84850F82400803000EB0510A4
:1022A000006820F48011B44850F82400803000EB1E
:1022B00005100160B7F5006F31D3AF4850F8240026
:1022C000803000EB0510006840F48001AA4850F807
:1022D0002400803000EB05100160A74850F824006E
:1022E000803000EB0510416827F060400143A248B0
:1022F00050F82400803000EB051041609E4850F8F3
:102300002400803000EB0510006840F400119A486A
:1023100050F82400803000EB0510016021E0964861
:1023200050F82400803000EB05104068934901EA22
:1023300087410843904951F82410803101EB051181
:1023400048608D4850F82400803000EB051000688C
:1023500020F40011884850F82400803000EB05106C
:102360000160854850F82400803000EB05100068BB
:1023700020F07061804850F82400803000EB051098
:1023800001607D4850F82400803000EB05100068A3
:1023900040F04061784850F82400803000EB051090
:1023A0000160002015E711B1754A42F8201070470E
:1023B00070B504460D46164636B1012E20D0022EC9
:1023C0000ED0032E38D127E06B4850F82400816AE4
:1023D0000120A8408143684850F8240081622CE025
:1023E000654850F82400816A0120A84001436248F2
:1023F00050F8240081626349085700F0B0F81CE0EF
:102400005D4850F82400816A0120A84081435A4861
:1024100050F82400816210E0574850F82400816A87
:102420000120A8400143544850F8240081625549D6
:10243000085700F094F800E000BF00BF70BDFCB585
:1024400004460D461E460020009001904A4850F870
:102450002400803000EB05100068C0F3036717F01C
:10246000010F01D00220FCBD434850F82400006B4E
:102470004FF0010C0CFA05FC10EA0C0F45D03E4859
:1024800050F82400D0F830C00120A8404CEA000CDD
:10249000394850F82400C0F830C0374850F82400BC
:1024A000803000EB05100068C0F30343324850F859
:1024B0002400803000EB0510806800902E4850F812
:1024C0002400803000EB0510C0680190002113E06B
:1024D000042908D2C1F1030C4FEACC0C009820FA71
:1024E0000CF0505407E0C1F1070C4FEACC0C0198F6
:1024F00020FA0CF05054491C9942E9D333701E481D
:1025000050F8240081680020ADE71B4850F82400F3
:1025100081680120A7E710B51948006810B1184973
:102520000868804714480068846A13480068006B94
:10253000204311490968086310BD10B51048406870
:1025400010B10F49486880470B484068846A0A48C0
:102550004068006B204308494968086310BD00F0DB
:102560001F020121914042094FF0E02303EB820258
:10257000C2F8001170470000249000000000FC1F0A
:102580001800FF1F3C90000010B5034600222948A8
:10259000406C012404EB1070274C246800FB04F20B
:1025A00033B1012B0DD0022B14D0042B24D11AE00F
:1025B0002048406C012404EB1070B2FBF0F008607E
:1025C0001CE01C48406C012404EB1070B2FBF0F0DE
:1025D000086013E01748406CC0F30360401CB2FB76
:1025E000F0F008600AE01348406CC0F30340401C60
:1025F000B2FBF0F0086001E0012010BD00BF002038
:10260000FBE701460868704703B5684602680A6040
:102610000CBD10B503F065FD10BD10B50446204695
:1026200003F084FD10BD10B50446204603F065FD9F
:1026300010BD7047008004400000FF1FFD49C96ABB
:1026400041F48051FB4AD162017911B101291ED1B7
:102650000EE0F94A016852F8211091F8211041F07A
:102660002001F54B026853F8222082F821100FE078
:10267000F14A016852F8211091F8211021F020014F
:10268000ED4B026853F8222082F8211000E000BFD1
:1026900000BF417931B1012913D0022938D0032973
:1026A0007DD15EE0E44A016852F8211091F82210D1
:1026B00021F00101E04B026853F8222082F8221039
:1026C0007BE0DD4A016852F8211091F8221041F0B8
:1026D0000101D94B026853F8222082F822101A46D1
:1026E000016852F8211091F8221021F006010268C9
:1026F00053F8222082F822101A46016852F821105D
:1027000091F82210026853F8222082F8221054E037
:10271000C94A016852F8211091F8221041F00101D4
:10272000C54B026853F8222082F822101A4601682D
:1027300052F8211091F8221021F00601026853F896
:10274000222082F822101A46016852F8211091F8CE
:10275000221041F00201026853F8222082F8221070
:102760002BE0B54A016852F8211091F8221041F08F
:102770000101B14B026853F8222082F822101A4658
:10278000016852F8211091F8221021F00601026828
:1027900053F8222082F822101A46016800E00BE06C
:1027A00052F8211091F8221041F00401026853F808
:1027B000222082F8221000E000BF00BF817911B111
:1027C00001291ED10EE09C4A016852F8211091F8AF
:1027D000211021F04001984B026853F8222082F822
:1027E00021100FE0944A016852F8211091F821104D
:1027F00041F04001904B026853F8222082F82110EA
:1028000000E000BF00BF8C4A016852F8211091F827
:10281000201021F00101884B026853F8222082F831
:1028200020101A46016852F8211091F8201021F06A
:102830000201026853F8222082F820101A4601682B
:1028400052F8211091F8201021F00401026853F889
:10285000222082F820101A46016852F8211091F8BF
:10286000211041F08001026853F8222082F82110E3
:1028700070470146704850F8210090F82300000985
:1028800070476D4A52F8202092F8232022F0F0027F
:10289000694B53F8203083F82320674A52F82020F0
:1028A00092F823200B0103F0F0031A43624B53F814
:1028B000203083F8232070475F4A52F8202092F896
:1028C000232022F00F025C4B53F8203083F82320A2
:1028D000594A52F8202092F8232001F00F031A439E
:1028E000554B53F8203083F82320704770B50446C9
:1028F0000D46082D7ED2DFE805F010041D2E3F5056
:1029000069844E49085700F01F02012191404C4A4A
:10291000430942F8231000BF95E0474850F82400CF
:1029200090F8220020F08000434951F8241081F8EB
:10293000220088E0404850F8240090F8210040F040
:1029400004003D4951F8241081F821003B49085703
:1029500000F055F977E0384850F8240090F821004D
:1029600040F00200344951F8241081F82100334925
:10297000085700F044F966E02F4850F8240090F81A
:10298000210040F001002C4951F8241081F8210069
:102990002A49085700F033F955E0274850F8240039
:1029A00090F8210040F00400234951F8241081F8E8
:1029B0002100214850F8240090F8220040F08000C7
:1029C0001D4951F8241081F822003CE01A4850F8C3
:1029D000240090F8210040F00200174951F824101B
:1029E00081F82100144850F8240090F8220040F0AB
:1029F000800000E026E0104951F8241081F8220000
:102A000021E00D4850F8240090F8210040F001002A
:102A1000094951F8241081F82100074850F8240092
:102A200090F8220040F08000034951F8241081F80A
:102A3000220008E000800440409000004890000020
:102A400080E100E000BF00BF70BD734951F8201065
:102A500091F8211041F010016F4A52F8202082F8BD
:102A6000211070476C4A52F8202092F8222022F060
:102A70001802694B53F8203083F8222031B1012924
:102A80000FD002291AD0032932D124E0624A52F829
:102A9000202092F82220604B53F8203083F8222027
:102AA00027E05D4A52F8202092F8222042F00802E6
:102AB000594B53F8203083F822201AE0564A52F836
:102AC000202092F8222042F01002534B53F820307D
:102AD00083F822200DE0504A52F8202092F822205C
:102AE00042F018024C4B53F8203083F8222000E0CB
:102AF00000BF00BF704730B50346002011E031F839
:102B00001040454D55F8235005F8104031F810405D
:102B1000240A414D55F8235005EB40056C70441CC8
:102B2000E0B29042EBDB30BD11B13C4A42F82010DC
:102B3000704710B53848006890F8214014F0040F31
:102B400009D03548006890F8200020F00400324990
:102B5000096881F8200014F0010F09D02E480068A0
:102B600090F8200020F001002B49096881F820002E
:102B700014F0020F09D02848006890F8200020F0D7
:102B800002002549096881F820002448006810B136
:102B900022490868804710BD10B51F48006890F8AA
:102BA000214014F0040F09D01B48006890F8200061
:102BB00020F004001849096881F8200014F0010F82
:102BC00009D01548006890F8200020F00100124953
:102BD000096881F8200014F0020F09D00E4800683F
:102BE00090F8200020F002000B49096881F82000CD
:102BF0000A48406810B109494868804710BD00F094
:102C00001F020121914042094FF0E02303EB8202B1
:102C1000C2F8001170470000409000002000FF1F24
:102C2000F749C96B41F00201F54AD1631146096CBD
:102C300041F002011164F349C968037801229A4006
:102C40009143F04AD160417801F03F010278EE4BA8
:102C5000D154817911B1012912D108E00178EA4AF1
:102C6000895C21F040010278E74BD15409E00178FA
:102C7000E54A895C41F040010278E34BD15400E021
:102C800000BF00BF0022E149037801EB4311CA8075
:102C9000DE49037801EB43118A834288DB490378DC
:102CA00001EB43118A608188C1F30E02D749037892
:102CB00001EB4311CA828188C1F30E02D349037824
:102CC00001EB4311CA83D149037801EB4311C26878
:102CD0000A6081688AB2CD49037801EB43118A808A
:102CE000CA49027801EB4211C988027C4FF4E063C3
:102CF00003EA02221143C54A037802EB4312D18052
:102D0000C249027801EB4211C988027ED20202F464
:102D100078421143BD4A037802EB4312D180BB4A8B
:102D2000037802EB43124169D160B849037801EBA3
:102D30004311026A0A61C1698AB2B449037801EB9E
:102D400043118A82B149027801EB4211C98890F897
:102D5000242002F007021143AC4A037802EB43122D
:102D6000D180AA49027801EB4211C98890F82C2041
:102D7000F82303EAC2021143A44A037802EB431288
:102D8000D180A249037801EB4311826A8A619F498D
:102D9000027801EB4211898B41F008029B490378CC
:102DA00001EB43118A830178974A895C41F08001E5
:102DB0000278954BD15470470146944800EB41107E
:102DC000C08AC0F30E007047904A02EB4012D28ACC
:102DD000D30BDB038D4A02EB4012D3828B4A02EB0A
:102DE0004012D28AC1F30E031A43884B03EB4013FF
:102DF000DA82704700F00F01824AD176704700F006
:102E00000F01804A9176704751B1804A02EB40121F
:102E1000928B42F008037D4A02EB4012938309E053
:102E20007A4A02EB4012928B22F00803774A02EBB7
:102E300040129383704710B50AB3744B03EB4013F1
:102E40009B8B43F02004714B03EB40139C836F4B2F
:102E500003EB40139B8B23F470646C4B03EB401328
:102E60009C836A4B03EB40139B8B4FF4706404EA22
:102E700001242343654C04EB4014A38309E0634B16
:102E800003EB40139B8B23F02004604B03EB4013B8
:102E90009C8310BD70B504460D4635B1012D0FD091
:102EA000022D18D0032D3ED124E0584800EB4410E9
:102EB000808B20F00401554800EB4410818333E0FF
:102EC000524800EB4410808B20F002014F4800EB89
:102ED0004410818328E04E49085700F021F94B48FF
:102EE00000EB4410808B40F00401484800EB441094
:102EF000818319E04649085700F012F9434800EB76
:102F00004410808B20F00401404800EB4410818382
:102F10003E4800EB4410808B40F002013B4800EB40
:102F20004410818300E000BF00BF70BD11B1394A79
:102F300042F82010704701463248C06801228A409A
:102F400010420ED0314800EB4110808B10F0800F02
:102F500005D001F00F002B4A1077002070470120A8
:102F6000FCE701F00F00274A10770020F6E7274A18
:102F700002EB4012116170470146244800EB4110FA
:102F800000697047214A02EB401211607047014608
:102F90001E4800EB4110006870471A48006840F472
:102FA000003018490860704710B500201549C877EF
:102FB0001848006810B117490868804710BD10B55F
:102FC00001201049C8771348406810B1114948687A
:102FD000804710BD10B502200A49C8770D488068A7
:102FE00010B10C498868804710BD10B50320054911
:102FF000C8770848C06810B10649C868804710BD46
:10300000008004400080004000100240009000401A
:103010004A9000003002FF1F10B504204649C877CF
:103020004648006910B145490869804710BD10B590
:1030300005204149C8774148406910B13F49486976
:10304000804710BD10B506203B49C8773B488069D2
:1030500010B13A498869804710BD10B5072036493C
:10306000C8773648C06910B13449C869804710BD77
:1030700010B508203049C8773048006A10B12F4990
:10308000086A804710BD10B509202B49C8772B4826
:10309000406A10B12949486A804710BD10B50A201E
:1030A0002549C8772548806A10B12449886A804735
:1030B00010BD10B50B202049C8772048C06A10B158
:1030C0001E49C86A804710BD10B50C201A49C87740
:1030D0001A48006B10B11949086B804710BD10B534
:1030E0000D201549C8771548406B10B11349486B3E
:1030F000804710BD10B50E200F49C8770F48806B70
:1031000010B10E49886B804710BD10B50F200A49D9
:10311000C8770A48C06B10B10849C86B804710BD1A
:1031200000F01F020121914042094FF0E02303EB20
:103130008202C2F800117047008000403002FF1F79
:10314000FE4900E0491C11F00F0FFBD1FC4A116051
:10315000FC4900E0491C11F00F0FFBD1FA4A116045
:10316000002011E00022F64B1B6803EB40135A804D
:10317000F34B1B6803EB40131A801822F04B1B68BB
:1031800003EB40139A60401C0028EBD0EF4900E0AD
:10319000491C11F00F0FFBD1002021E08022EA4BE7
:1031A0001B6803EB40131A800022E74B1B6803EBFC
:1031B00040135A800ABAE44B1B6803EB40135A6071
:1031C00001F5BE610022E04B1B6803EB40131A615E
:1031D0004FF40042DC4B1B6803EB40139A60401C29
:1031E0000028DBD0D64A1268128842F02002D44B65
:1031F0001B681A80D44A1268128842F02002D24B0F
:103200001B681A80704770B503464FF0FF310022EB
:1032100012E09C5C00250CE004F0010001F00106C6
:10322000704003D04908CA48414000E04908641092
:103230006D1C082DF0DB521C062AEADB880E70BDDF
:1032400070B5044620780006617840EA0140A17814
:1032500040EA0120E1780843BE49086020794FEA3E
:103260000060617940EA0140BB49C1F8E8002046AE
:10327000FFF7C9FF0546202D0DDBB8480068A5F112
:1032800020014FF0010202FA01F240EA0200B249C5
:10329000C1F818010AE0B24800684FF0010101FAD4
:1032A00005F140EA0100AC49C1F81C0170BD38B518
:1032B000AC48C06A40F00100AA49C8620020AA498F
:1032C000086069460220FFF75FF94FF47A710098B1
:1032D000B0FBF1F0B0FBF1F460000521B0FBF1F0C0
:1032E000401C7E2101EA40009B49486438BD30B54E
:1032F00003460C469848406840F40000964D6860CC
:103300004FF0786000EAC35040F0A0404FF4F80559
:1033100005EA8445284340F4003010438E4D28646C
:10332000002106E08C48406810F4000F00D003E054
:10333000491C8E488142F5D300BF8C48814201D19F
:10334000C8B230BD8448406840F40000824D6860D7
:103350000020F6E730B503460C467F48406840F44D
:1033600000007D4D68604FF0786000EAC35040F087
:10337000C0404FF4F80505EA8445284340F4003086
:10338000754D2864002106E07348406810F4000F72
:1033900000D003E0491C75488142F5D300BF734853
:1033A000814201D1C8B230BD6B48406840F4000092
:1033B000694D68602846006C10800020F3E738B53E
:1033C000054600246748C06A40F001006549C862AC
:1033D000002065490860FFF7B3FE6548407820F09B
:1033E00004006349487001205B4948620020009056
:1033F00005E000BFBDF80000401C80B20090BDF8A1
:1034000000006428F5DBFFF752FF4FF40042002173
:103410000120FFF76CFF0A20FFF7FFF800BF0A202A
:10342000FFF7FBF8601C84B2322C00DD11E04FF690
:10343000FF7000906A4602210120FFF78BFFBDF864
:103440000000A0F57F41FF39E9D0BDF80000002859
:10345000E5D000BF6A4600210120FFF77BFF6A46E6
:1034600002210120FFF776FF6A4603210120FFF7C2
:1034700071FF6A4604210120FFF76CFF6A460521AF
:103480000120FFF767FF6A4606210120FFF762FF70
:103490006A4607210120FFF75DFF6A4615210120DA
:1034A000FFF758FF6A461B210120FFF753FF6A46CA
:1034B0001E210120FFF74EFF6A461E210120FFF763
:1034C00049FF4FF4905200210120FFF710FF6A4698
:1034D00000210120FFF73EFF00BF6420FFF79DF8A9
:1034E000601C84B21E2C00DD09E06A4601210846FA
:1034F000FFF730FFBDF8000010F0200FEDD000BF47
:1035000000200090164908601349C1F818011949B4
:103510000860A1F1040108602868FFF791FE1648D1
:10352000164908604FF000000B49C1F8C4006A4614
:103530004FF01F014FF0010022E000007002FF1F5A
:103540003000FF1FA002FF1F3400FF1FD002FF1F2B
:103550002083B8EDE4000C4000000C4018010C4042
:103560001C010C400080044000D00040FFFF01001F
:103570000040064024010C400441F00584000C404A
:10358000FFF7E8FEBDF8000010F0100F0ED08248E3
:10359000006820F002008149C1F884000846D0F894
:1035A000C40040F00400C1F8C4000DE07A4800688F
:1035B00040F002007949C1F884000846D0F8C40000
:1035C00020F00400C1F8C400BDF8000010F0040FA2
:1035D00006D07148006840F400707049C1F884005A
:1035E0004FF010006D4948626D48006843F6F07175
:1035F00040EA01006949C1F888016A480068C1F8D9
:10360000800169480068694908604FF0FF306349EC
:1036100048600846406A40F0020048624FF08070FF
:10362000086138BD70B504460D4600BF5E480068AD
:10363000008810F0800FF9D120BA5B490968486012
:103640002846FCF739FF5849096848800020564948
:10365000096808616020544909688860AC205249B3
:10366000096808804FF080704C49486170BD70B5A2
:10367000054600244B480068008810F0800F1BD1DD
:10368000484909684888FCF717FF84B24548006834
:10369000406801BA2246284603F078FB414800689A
:1036A000008840F080003F49096808804FF0807032
:1036B0003A490861204670BD0020FCE710B5044679
:1036C00034B1012C0BD0022C10D0032C22D117E0E6
:1036D0003248806820F00060304988601BE02F4845
:1036E000806820F000702D49886014E04C2000F0C4
:1036F00047F82A48806840F00060284988600AE05E
:103700004D2000F03DF82548806840F000702349C6
:10371000886000E000BF00BF10BD08B12449086008
:10372000704708B12349086070471C48406810F092
:10373000006F07D01948406840F0006017494860A2
:10374000012070470020FCE710B51448406840F0A5
:103750000060124948601648006810B114490868B2
:10376000804710BD10B50D48406840F000700B490F
:1037700048601048006810B10E490868804710BDC5
:1037800000F01F020121914042094FF0E02303EBBA
:103790008202C2F80011704784000C4000000C4007
:1037A00088010C403400FF1F3000FF1F84010C40D3
:1037B0002800FF1F2C00FF1F10B5FE4B53F83030C0
:1037C0001B68FC4C04EBC00464682343F94C54F8B8
:1037D000304023600023F84C54F820402360F64B1F
:1037E00053F820305B6D43F00403F34C54F8204051
:1037F00063650023F04C54F820406360EE4C54F8AD
:103800002040E364EC4B53F8203099604FF0FF33D5
:10381000E94C54F82040C4F89830E74B53F8203076
:103820001B6823F01803E44C54F820402360E24B5B
:1038300053F820301B6843F00803DF4C54F8204055
:103840002360DD4B53F820301B6823F00703DA4C6C
:1038500054F820402360D84B53F820301B6802F006
:1038600007042343D44C54F82040236010BD014684
:1038700009B1012901D100207047022901D0032993
:1038800001D10120F8E7042901D0052901D1022046
:10389000F2E70320F0E72DE9F04104460E46154615
:1038A0001F464FF00008062D34D2DFE805F0030B69
:1038B000131B232B3046FFF7DAFFC100012000FA6B
:1038C00001F828E03046FFF7D2FFC100022000FADD
:1038D00001F820E03046FFF7CAFFC100042000FADB
:1038E00001F818E03046FFF7C2FFC100102000FACF
:1038F00001F810E03046FFF7BAFFC100202000FABF
:1039000001F808E03046FFF7B2FFC100402000FA9E
:1039100001F800E000BF00BF012F0AD1A64850F80F
:103920002400406E40EA0800A34951F8241048667C
:1039300009E0A14850F82400406E20EA08009E49A2
:1039400051F824104866BDE8F08110B512B1012A83
:103950003AD11CE0984B53F820300C3353F83130F7
:1039600023F00404944B53F820300C3343F83140D7
:10397000914B53F820300C3353F8313043F00804A6
:103980008D4B53F820300C3343F831401DE08A4B07
:1039900053F820300C3353F8313043F00404864B95
:1039A00053F820300C3343F83140834B53F8203028
:1039B0000C3353F8313023F008047F4B53F8203098
:1039C0000C3343F8314000E000BF00BF10BD70B5BC
:1039D00004460D461646062E7ED2DFE806F0035B4F
:1039E000F1FDA2EF744850F82400406D20F0010072
:1039F000714951F8241048656F4850F82400D0F8F8
:103A0000800020F001006C4951F82410C1F88000BA
:103A1000694850F82400006820F02000664951F8F9
:103A200024100860644850F824000C3050F8350029
:103A300040F03001604850F824000C3040F8351058
:103A4000002229462046FFF780FF00231A46294618
:103A50002046FFF720FF0023012229462046FFF7DA
:103A60001AFF0023022229462046FFF714FF0023F5
:103A7000032229462046FFF70EFF00230422294691
:103A80002046FFF708FF0023052229462046FFF7BE
:103A900002FFD3E1484850F82400406D20F00100B7
:103AA000454951F824104865434850F82400D0F89F
:103AB000800020F00100404951F82410C1F8800036
:103AC0003D4850F82400006840F020003A4951F881
:103AD00024100860002300E0AFE11A462946204682
:103AE000FFF7D9FE0023012229462046FFF7D3FE27
:103AF0000023022229462046FFF7CDFE00230322A1
:103B000029462046FFF7C7FE002304222946204607
:103B1000FFF7C1FE0023052229462046FFF7BBFE22
:103B20008CE1254850F82400D0F8800020F00100F6
:103B3000214951F82410C1F880001F4850F8240092
:103B4000406D20F001001C4951F8241048651A48C6
:103B500050F82400006820F02000174951F8241084
:103B60000860154850F824000C3050F8350020F05B
:103B70003001114850F824000C3040F83510002373
:103B80001A4629462046FFF786FE002301222946D1
:103B90002046FFF780FE0023022229462046FFF739
:103BA0007AFE0023032229462046FFF774FE0023F5
:103BB000042206E0749000005C900000EEE00BE050
:103BC0007BE029462046FFF766FE002305222946B2
:103BD0002046FFF760FE31E1F74850F82400D0F8A6
:103BE000800020F00100F44951F82410C1F8800051
:103BF000F14850F82400006820F02000EE4951F808
:103C000024100860EC4850F82400406D40F0040097
:103C1000E94951F824104865E74850F82400406D00
:103C200040F00100E44951F82410486501230022C6
:103C300029462046FFF72FFE01231A462946204633
:103C4000FFF729FE0023022229462046FFF723FE24
:103C50000023032229462046FFF71DFE01230422EC
:103C600029462046FFF717FE002305222946204655
:103C7000FFF711FED04850F824000C3050F8350002
:103C800040F03001CC4850F824000C3040F835109A
:103C9000002229462046FFF758FE0320C64951F866
:103CA00024108865C44850F82400806D40F08000DE
:103CB000C14951F824108865C0E0BF4850F824007D
:103CC000D0F8800020F00100BB4951F82410C1F861
:103CD0008000B94850F82400006820F02000B64960
:103CE00051F824100860B44850F82400406D40F0AA
:103CF0000400B14951F824104865AF4850F8240039
:103D0000406D40F00100AC4951F824104865012392
:103D1000002229462046FFF7BEFD00230122294646
:103D20002046FFF7B8FD0023022229462046FFF770
:103D3000B2FD0023032229462046FFF7ACFD0123F4
:103D4000042229462046FFF7A6FD00230522294626
:103D50002046FFF7A0FD984850F824000C3050F89A
:103D6000350040F03001944850F824000C3040F801
:103D70003510002229462046FFF7E7FD03208E4933
:103D800051F8241088658C4850F82400806D40F06C
:103D90008000894951F8241088654FE0864850F822
:103DA0002400D0F8800040F00100834951F824102D
:103DB000C1F88000804850F82400006820F02000FE
:103DC0007D4951F8241008607B4850F82400406D6C
:103DD00040F00400784951F824104865764850F8BE
:103DE0002400406D40F00100734951F824104865EB
:103DF0000123002229462046FFF74DFD0023012222
:103E000029462046FFF747FD002302222946204687
:103E1000FFF741FD0023032229462046FFF73BFD23
:103E20000023042229462046FFF735FD0023052202
:103E300029462046FFF72FFD00E000BF00BF70BD00
:103E4000F7B50E4617466C462168C1F302000422FE
:103E50004FF6FF71FFF7B0FC2168C1F302000522A5
:103E60000021FFF7B4FD16B1012E48D123E02068F0
:103E7000C0F30200504951F82000D0F8800020F033
:103E800020002168C1F302014B4A52F82110C1F809
:103E900080002068C0F30200114651F82000D0F8DD
:103EA000800020F010002168C1F3020152F82110B7
:103EB000C1F8800024E02068C0F302003E4951F8B8
:103EC0002000D0F8800040F020002168C1F30201FA
:103ED000394A52F82110C1F880002068C0F302006E
:103EE000114651F82000D0F8800040F01000216801
:103EF000C1F3020152F82110C1F8800000E000BFB8
:103F000000BF17B1012F26D112E02068C0F30200D4
:103F1000294951F82000D0F8800020F008002168DD
:103F2000C1F30201244A52F82110C1F8800013E0C5
:103F30002068C0F30200204951F82000D0F880002A
:103F400040F008002168C1F302011B4A52F8211019
:103F5000C1F8800000E000BF00BF002523E0236817
:103F6000C3F38212C3F344232B44D9B22368C3F3AF
:103F7000C20000F01BFB2268C2F344222A44D1B2E3
:103F80002268C2F3C200012200F035FB2268C2F3AE
:103F900044222A44D1B22268C2F3C200012200F0B6
:103FA0007BFB681CC5B22068C0F38430A842D6DC15
:103FB0002068C0F30200FEBD5C900000FE4B53F889
:103FC0002030D3F88030C3F380031370FA4B53F8DA
:103FD00020305B689BB20B6070470021F64A52F8B4
:103FE00020205160704770B51346F34C54F82040C0
:103FF000A4685C4342F21075B4FBF5F2EE4C54F841
:104000002040646E14F0013F2FD00C4601EBD475B4
:104010006D10B1EB450510D00026E74C54F8204058
:104020000C344D1E04EBC5046660E34C54F820408C
:104030000C3404EBC10462600FE00025DE4C54F840
:1040400020400C3404EBC1046560DB4C54F8204084
:104050000C344D1C04EBC50462604FF0FF34D64DA8
:1040600055F82050C5F8984006E0D34C54F820404D
:104070000C3404EBC104626070BD2DE9F74F82B0CF
:1040800089469046002702AC00250DE02368C3F363
:104090008212C3F344232B44D9B22368C3F3C20072
:1040A00000F084FA681CC5B22068C0F38430A842CE
:1040B000ECDC4FF6FF7B01A90220FEF765FA0198C0
:1040C000B0FBF8F05946B0FBF1F60198B0FBF8F000
:1040D000B0FBF6F0B0F5803F00D3761C00251DE064
:1040E000012000FA05F0301A03D50120A840801BFA
:1040F00002E00120A840301A58450DD22F46012079
:1041000000FA05F0301A03D50120A840801B02E018
:104110000120A840301A8346681CC5B2072DDFDB9A
:104120000120B840B04201DA781CC7B2072F00DD89
:1041300007270120B8400199B1FBF0F0B0FBF8F07F
:10414000A0F1010A2168C1F302003A465146FFF787
:1041500033FBB9F1000F06D0B9F1010F0CD0B9F162
:10416000020F1BD111E02268C2F3C441C2F3020066
:104170000022FFF72CFC12E02268C2F3C441C2F314
:1041800002000222FFF723FC09E02268C2F3C441C7
:10419000C2F302000322FFF71AFC00E000BF00BFD9
:1041A0002268C2F3C441C2F3020041F28832FFF731
:1041B0001AFF2068C0F3020005B0BDE8F08F73B5A8
:1041C0000E466C4600250CE02368C3F38212C3F34D
:1041D00044232B44D9B22368C3F3C20000F0E6F9AC
:1041E0006D1C2068C0F38430A842EDD82168C1F36B
:1041F000020032464FF6FF71FFF7DEFA2268C2F383
:10420000C441C2F302000422FFF7E1FB7CBD10B5FC
:10421000694B53F820300C3353F8313023F00C0441
:10422000654B53F820300C3343F8314022B1012A5A
:104230001FD0022A49D139E05F4B53F820300C33AC
:1042400053F8313023F008045B4B53F820300C3323
:1042500043F83140584B53F820300C3353F8313089
:1042600043F00404544B53F820300C3343F83140EE
:104270002CE0514B53F820300C3353F8313043F0DD
:1042800008044D4B53F820300C3343F831404A4B6F
:1042900053F820300C3353F8313023F00404464BEC
:1042A00053F820300C3343F831400FE0424B53F8C1
:1042B00020300C3353F8313043F00C043E4B53F8AC
:1042C00020300C3343F8314000E000BF00BF10BD88
:1042D0000246394850F822000C3000EBC10040681B
:1042E0007047354A52F820205160704711B1334A67
:1042F00042F82010704770B511297DD2DFE801F037
:1043000009202122232425262748494A4B4C4D4E7B
:104310004F0052B1284B53F820301B6843F0400344
:10432000254C54F82040236009E0234B53F82030FB
:104330001B6823F04003204C54F82040236083E0A6
:1043400000BF00BF00BF00BF00BF00BF00BF7AB109
:10435000194B53F820300C334C1E53F8343043F0D3
:104360004005154B53F820300C3343F834500EE021
:10437000114B53F820300C334C1E53F8343023F0DB
:1043800040050D4B53F820300C3343F834505BE0BC
:1043900000BF00BF00BF00BF00BF00BF00BFBAB179
:1043A000054B53F820400C34A1F1090354F8333085
:1043B00043F04005004B03E05C900000D008FF1F75
:1043C00053F820400C34A1F1090344F8335011E0B4
:1043D000724B53F820400C34A1F1090354F83330E8
:1043E00023F040056D4B53F820400C34A1F1090334
:1043F00044F83350A2B100E025E0684B53F8204068
:104400000C34A1F1090354F8333043F00105634B38
:1044100053F820400C34A1F1090344F8335011E063
:104420005E4B53F820400C34A1F1090354F83330AB
:1044300023F00105594B53F820400C34A1F1090336
:1044400044F8335000E000BF00BF554C235603F042
:104450001F050124AC405D094FF0E02606EB850501
:10446000C5F8004100BF70BD10B54E48006810B1DE
:104470004C490868804749480068006810F0C00F40
:1044800007D046480068006820F08000434909686A
:104490000860002415E0414800680C3050F83400F2
:1044A00010F0C00F0CD03D4800680C3050F83400BC
:1044B00020F08001394800680C3040F8341004E0E6
:1044C000641C39480068A042E5D800BF10BD10B593
:1044D0003448406810B13349486880472F484068E5
:1044E000006810F0C00F07D02C484068006820F02A
:1044F00080002A4949680860002415E02748406880
:104500000C3050F8340010F0C00F0CD02348406835
:104510000C3050F8340020F08001204840680C3006
:1045200040F8341004E0641C1F484068A042E5D8FD
:1045300000BF10BD10B51B48806810B119498868CC
:10454000804716488068006810F0C00F07D01348F5
:104550008068006820F080001049896808600024A5
:1045600015E00E4880680C3050F8340010F0C00F91
:104570000CD00A4880680C3050F8340020F08001DC
:10458000064880680C3040F8341004E0641C06488B
:104590008068A042E5D800BF10BD00005C9000001C
:1045A0008C900000D008FF1F6890000010B5FA4BF7
:1045B0009B6BFA4C54F820402343F74CA363F84B11
:1045C00053F8203053F8213023F4E063F44C54F8CE
:1045D000204044F82130F24B53F8203053F821307A
:1045E0004FF4E06404EA02242343ED4C54F82040E5
:1045F00044F8213010BD10B5E74B9B6BE74C54F8E5
:1046000020402343E44CA36322B1012A0FD0022AA5
:104610003FD125E0E24B53F8203053F8213023F00E
:104620000203DF4C54F8204044F8213032E0DC4BE8
:1046300053F8203053F8213043F00203D84C54F89B
:10464000204044F82130D64B53F8203053F8213025
:1046500043F00103D24C54F8204044F8213019E0D3
:10466000CF4B53F8203053F8213043F00203CC4CA9
:1046700054F8204044F82130C94B53F8203053F807
:10468000213023F00103C64C54F8204044F8213077
:1046900000E000BF00BF10BD10B5BF4B9B6BBF4C0F
:1046A00054F820402343BC4CA363012A0CD1BC4BDB
:1046B00053F8203053F8213043F02003B84C54F81D
:1046C000204044F821300BE0B54B53F8203053F82C
:1046D000213023F02003B24C54F8204044F821301C
:1046E00010BD10B5AC4B9B6BAC4C54F82040234331
:1046F000A94CA363012A0CD1A94B53F8203053F8DD
:10470000213043F01003A64C54F8204044F82130E7
:104710000BE0A34B53F8203053F8213023F0100363
:104720009F4C54F8204044F8213010BD10B59A4BEE
:104730009B6B9A4C54F820402343974CA363012A67
:104740000BD1984B53F820305B6901248C402343F4
:10475000944C54F8204063610AE0924B53F82030A7
:104760005B6901248C40A3438E4C54F82040636164
:1047700010BD10B504466078052863D2DFE800F06C
:104780000316293C4F006268D1B220780022FFF75F
:1047900032FF6268D1B220780022FFF77DFF6268A5
:1047A000D1B220780022FFF7C1FF4CE06268D1B29D
:1047B00020780222FFF71FFF6268D1B22078002222
:1047C000FFF76AFF6268D1B220780022FFF7AEFFE0
:1047D00039E06268D1B220780122FFF70CFF6268ED
:1047E000D1B220780022FFF757FF6268D1B220785B
:1047F0000022FFF79BFF26E06268D1B220780122F9
:10480000FFF7F9FE6268D1B220780122FFF744FF7A
:104810006268D1B220780122FFF788FF13E0626856
:10482000D1B220780022FFF7E6FE6268D1B220788C
:104830000022FFF731FF6268D1B220780122FFF732
:1048400075FF00E000BF00BF6268D1B2207801228E
:10485000FFF7ACFE10BD7CB504460D461646E0B22F
:104860008DF800008DF8016001956846FFF781FF23
:10487000E0B27CBD10B55AB14A4B53F820305B68AA
:1048800001248C402343474C54F8204063600AE0E5
:10489000444B53F820309B6801248C402343414C07
:1048A00054F82040A36010BD02463E4850F8220054
:1048B0004069C84010F0010F07D03A4850F8220074
:1048C0000068C84000F001007047364850F82200E8
:1048D0000069C84000F00100F6E7324A52F8202093
:1048E000D26801238B401A432E4B53F82030DA60F4
:1048F000704701462B4850F8210000697047294A4B
:1049000052F820201160704770B504460D461646D7
:104910002148806B214951F8241008431E498863BF
:104920001F4850F8240050F8250020F470201C493E
:1049300051F8241041F825000A2E79D2DFE806F05C
:104940000511121F38455667798A1749085700F034
:104950001F0201219140154A430942F8231000BF6C
:104960008AE089E00E4850F8240050F8250040F411
:1049700080300B4951F8241041F825007CE00848AC
:1049800050F8240050F8250040F40030044951F854
:10499000241041F825006FE000800440B89000002A
:1049A000A490000090900000CC90000080E100E016
:1049B0006E4850F8240050F8250040F440306B4910
:1049C00051F8241041F8250056E0684850F82400BA
:1049D00050F8250040F40020644951F8241041F8B3
:1049E00025006349085700F0B5F845E05F4850F8E6
:1049F000240050F8250040F410205C4951F82410A0
:104A000041F825005A49085700F0A4F834E0574807
:104A100050F8240050F8250040F42020534951F864
:104A2000241041F825005249085700F093F823E07C
:104A300021E04E4850F8240050F8250040F4302082
:104A40004A4951F8241041F825004949085700F017
:104A500081F811E0454850F8240050F8250040F452
:104A60004020424951F8241041F825004049085798
:104A700000F070F800E000BF00BF70BD3D4A926BCF
:104A80003D4B53F820301A433A4B9A6311B13B4ADD
:104A900042F82010704710B534480068D0F8A040A4
:104AA0004FF0FF3031490968C1F8A0003348006871
:104AB00018B1324801682046884710BD10B52B4810
:104AC0004068D0F8A0404FF0FF3028494968C1F84D
:104AD000A0002A48406818B1284841682046884705
:104AE00010BD10B521488068D0F8A0404FF0FF30CD
:104AF0001E498968C1F8A0002048806818B11F4885
:104B000081682046884710BD10B51848C068D0F8A5
:104B1000A0404FF0FF301549C968C1F8A000174800
:104B2000C06818B11548C1682046884710BD10B547
:104B30000E480069D0F8A0404FF0FF300B490969DA
:104B4000C1F8A0000D48006918B10C480169204661
:104B5000884710BD00F01F020121914042094FF02B
:104B6000E02303EB8202C2F800117047A49000001A
:104B7000CC90000000800440B8900000DC08FF1FCB
:104B80002DE9F04F81460C4615461423B4FBF3F390
:104B9000AB4201D2BDE8F08F29464FF0FF3200262C
:104BA0000027002028E04FF0010C0CFA00FA002347
:104BB0001EE0DFF84CB40BEB830BBBF802B00BFB31
:104BC0000AFBB4FBFBFC614502D9A1EB0C0B01E035
:104BD000ACEB010BD846904509D20646DFF820B46D
:104BE0001BF823704246B8F1000F00D102E05B1CB5
:104BF000322BDED300BF401C022801D8002AD2D1BC
:104C000007F03F034FEA861C0CF0C00C43EA0C038C
:104C1000DFF8F0C35CF829C08CF8013000BFB9E7B9
:104C200038B50446F848406BF84A216852F821101C
:104C30000843F5494863F349206851F8200080781B
:104C400020F08000EF4A216852F8211088706946F0
:104C50000220FDF799FCD4E900020099FFF790FFCC
:104C6000E849206851F82000807840F08000E54A4B
:104C7000216852F82110887038BD73B582B00E4695
:104C800002AC01962068C0F302000090002523E0EA
:104C90002368C3F38212C3F344232B44D9B223689D
:104CA000C3F3C200FFF782FC2268C2F344222A4405
:104CB000D1B22268C2F3C2000122FFF79CFC226835
:104CC000C2F344222A44D1B22268C2F3C2000122B4
:104CD000FFF7E2FC681CC5B22068C0F38430A8422C
:104CE000D6DC6846FFF79CFF2068C0F3020004B0E2
:104CF00070BDC44951F82010897841F01001C14AB3
:104D000052F820209170BF4951F82010897841F065
:104D10002001BC4A52F8202091707047B94951F8DF
:104D20002010897841F00401B64A52F82020917091
:104D30007047B44951F82010897821F02001B14A18
:104D400052F820209170AF4951F82010897821F055
:104D50001001AC4A52F8202091707047A94A52F8CD
:104D60002020117170470146A64850F821000079B3
:104D700070474B06190E012A02D101F0FE0101E035
:104D800041F001019F4B53F82030197170470146E3
:104D9000002200BF01E0521C00BF9A4850F82100D9
:104DA000C07810F0800F03D141F288308242F2D3F4
:104DB000002201E0521C00BF924850F82100C07848
:104DC00010F0020F03D141F288308242F2D38D48B5
:104DD00050F82100C07840F002008A4B53F821308F
:104DE000D87041F27E30824201D902207047854856
:104DF00050F82100C07810F0010F01D00120F5E734
:104E00000020F3E701290AD17E4A52F82020927847
:104E100042F010027B4B53F820309A7009E0794A37
:104E200052F82020927822F01002764B53F820306E
:104E30009A707047734951F82010897841F0080141
:104E4000704A52F82020917070476E4951F8201036
:104E5000897821F008016B4A52F820209170704740
:104E600030B50A4632B1012A1AD0022A23D0032AC9
:104E700045D139E0664B195601F01F040123A340C8
:104E8000644C4D0944F8253000BF5E4951F82010AC
:104E9000897821F040015B4B53F8203099702FE066
:104EA000584951F82010897821F00101554B53F8E9
:104EB0002030997024E0564B195601F01F0401234D
:104EC000A3404C094FF0E02505EB8404C4F8003101
:104ED00000BF4C4951F82010897841F04001494BFE
:104EE00053F8203099700BE0464951F8201089782A
:104EF00041F00101434B53F82030997000E000BFAE
:104F000000BF30BD11B1444A42F82010704701463D
:104F10003C4850F82100C07810F0200F01D000204C
:104F200070470120FCE72DE9FF4F82468B461F4664
:104F3000DDE90D6800250DF108095046FFF7D9FE9F
:104F4000012259465046FFF714FF5046FFF71FFF56
:104F500088B15046FFF7EDFE00BF00E06D1C5046E3
:104F6000FFF7D5FF18B942F210708542F6D3012041
:104F700004B0BDE8F08FB8F1000F0AD15046FFF73A
:104F8000D8FE00BF5046FFF7C2FF0028FAD000202D
:104F9000EEE700241AE019F8011B5046FFF7DEFE89
:104FA0005046FFF7F4FE78B15046FFF7C2FE0025E9
:104FB00000E06D1C5046FFF7AAFF18B942F21070CE
:104FC0008542F6D30220D3E7601CC4B2BC42E2D3D0
:104FD0005046FFF7A3FE002259465046FFF7C9FE90
:104FE0005046FFF7D4FEC8B15046FFF7A2FE002599
:104FF00000BF5046FFF78BFF0028FAD00320B7E729
:10500000E6900000D490000000800440DC90000096
:10501000E490000080E100E03800FF1F00215046CE
:10502000FFF7F0FE5046FFF79EFE5046FFF70DFFDC
:105030005046FFF7ACFE00240CE05046FFF793FE0D
:1050400006F8010B5046FFF700FF5046FFF79FFEA2
:10505000601CC4B2A8F10100A042EED85046FFF790
:1050600082FE30705046FFF7E5FE5046FFF78FFE98
:105070005046FFF75EFE00BF5046FFF748FF00288E
:10508000FAD0002074E72DE9FF47804689461D4687
:10509000DDE90C6A002402AF4046FFF72AFE012238
:1050A00049464046FFF765FE4046FFF770FE88B16F
:1050B0004046FFF73EFE00BF00E0641C4046FFF79D
:1050C00026FF18B942F210708442F6D3012004B0D2
:1050D000BDE8F08718E017F8011B4046FFF73EFED9
:1050E0004046FFF754FE78B14046FFF722FE002409
:1050F00000E0641C4046FFF70AFF18B942F2107046
:105100008442F6D30220E2E72800A5F10105E2D1AE
:1051100018E016F8011B4046FFF720FE4046FFF757
:1051200036FE78B14046FFF704FE002400E0641C20
:105130004046FFF7ECFE18B942F210708442F6D3F5
:105140000320C4E75FEA0A00AAF1010AE1D1404660
:10515000FFF7EFFD002400BF4046FFF7D8FE002810
:10516000FAD00020B3E77FB582B004460D4616465C
:10517000012005A903463246CDE900102946204604
:10518000FFF781FF06B070BDFCB505460E46174619
:105190001C46012003463A463146CDE900402846E8
:1051A000FFF7C1FEC0B2FCBD2DE9F04107468846BD
:1051B00015461E4600243846FFF79BFD0122414656
:1051C0003846FFF7D6FD3846FFF7E1FD80B1384697
:1051D000FFF7AFFD00BF00E0641C3846FFF797FE05
:1051E00018B942F210708442F6D30120BDE8F08174
:1051F00029463846FFF7B2FD3846FFF7C8FD78B1BB
:105200003846FFF796FD002400E0641C3846FFF79F
:105210007EFE18B942F210708442F6D30220E5E710
:105220003846FFF786FD00BF3846FFF770FE0028BE
:10523000FAD000243846FFF75CFD0022414638468C
:10524000FFF797FD3846FFF7A2FD58B13846FFF744
:1052500070FD00BF00BF3846FFF759FE0028FAD0A6
:105260000320C3E700213846FFF7CCFD3846FFF79F
:105270007AFD3846FFF7E9FD3846FFF788FD3846E6
:10528000FFF771FD30703846FFF7D4FD3846FFF761
:105290007EFD3846FFF74DFD00BF3846FFF737FE6D
:1052A0000028FAD00020A1E7F0B504460D461646C6
:1052B0001F463B46324629462046FFF754FFF0BDC5
:1052C00010B50F480068C07840F002000C4909682A
:1052D000C8700C48006810B10A490868804710BDC2
:1052E00010B507484068C07840F00200044949689A
:1052F000C8700448406810B102494868804710BD32
:10530000D49000003800FF1F8A49896B41F00101E9
:10531000884A91630021884A11605160916011466A
:10532000096821F0010111601146096821F00401AA
:1053300011601146096821F00201116005215160D8
:10534000018891601146096841F0010111607047C0
:105350007849896B41F00101764A91630021764AD0
:105360001160516091601146096821F001011160DE
:105370001146096821F0040111601146096841F0E5
:10538000020111600521516001889160817821B18D
:10539000012907D0022913D10BE067490968664A41
:1053A00011600EE06449096841F01001624A116021
:1053B00007E06149096841F020015F4A116000E09F
:1053C00000BF00BFC17811B101290ED106E05A49D2
:1053D000096821F00801584A116007E05649096838
:1053E00041F00801544A116000E000BF00BF52497B
:1053F000096841F00101504A1160704710B501463B
:105400004C48806B40F001004A4A906311B1012979
:1054100029D112E0494A92F9000000F01F0301224D
:105420009A40474B440943F8242000BF4248006893
:1054300020F04000404A106016E0404A92F9000017
:1054400000F01F0301229A4043094FF0E02404EBCF
:105450008303C3F8002100BF3748006840F04000D4
:10546000354A106000E000BF00BF10BD3149896BB4
:1054700041F001012F4A916308B132490860704739
:105480002D490C3141F2342008602B48C06880B2AD
:10549000704731B582B002AC4FF6FF70ADF8040032
:1054A0002068C0F3C440012802D0022808D103E0DC
:1054B00001208DF8060004E002208DF8060000E0CF
:1054C00000BF00BF00208DF8070000250CE0236816
:1054D000C3F38212C3F344232B44D9B22368C3F32A
:1054E000C200FFF763F86D1C2068C0F38430A84247
:1054F000EDD801A8FFF72CFF2068C0F302003EBDE5
:105500000D48006820F001000B490860084600685B
:1055100040F001000860704710B50748006840F08F
:105520008000054908600748006810B1054908680F
:10553000804710BD0080044000000440AE91000090
:1055400080E100E04000FF1F10B504466B48C06BCF
:1055500040F400006949C86369490220FDF714F866
:10556000674800686749B0FBF1F065490860084684
:1055700000684FF47A714843634908600846006840
:1055800008605F496068096848436049227801EB18
:10559000021108605D48217800EB0110806840F03E
:1055A00001015A48227800EB0210816058480068D7
:1055B00020F002005649086010BD7CB505460C4637
:1055C0008DF8005001946846FFF7BEFF7CBD30B5F2
:1055D0000A464A49C96B41F40001484BD96312B1EC
:1055E000012A2AD10AE0494901EB0011896821F01A
:1055F0000203464901EB00118B601FE0454B195631
:1056000001F01F040123A3404C094FF0E02505EBF6
:105610008404C4F8003100BF3F49096841F0010328
:105620003D490B60394901EB0011896841F00203E3
:10563000364901EB00118B6000E000BF00BF30BDB8
:10564000324901EB0011896821F001022F4901EB79
:1056500000118A602D4901EB0011896841F00102B7
:105660002A4901EB00118A6070470146274800EB88
:10567000011040687047214AD26B42F400021F4B70
:10568000DA6311B1254A42F82010704710B522485C
:10569000006840F00101204801602048006810B116
:1056A0001E490868804710BD10B51D48006840F0CD
:1056B00001011B4801601948406810B1174948684A
:1056C000804710BD10B51748006840F0010115482B
:1056D00001601248806810B110498868804710BD89
:1056E00010B51148006840F001010F4801600B48F7
:1056F000C06810B10949C868804710BD00800440E7
:105700004400FF1F40420F004800FF1F007103408C
:1057100000700340AF9100000C710340F008FF1FC0
:105720001C7103402C7103403C7103400146EA4A5E
:10573000D26B42F00052E84BDA63E84A126922F475
:105740008072E64B1A610A78012A06D0022A0BD031
:10575000032A10D0042A1CD114E0E04A126942F452
:105760000052DE4B1A6115E0DC4A126942F48052A5
:10577000DA4B1A610EE0D94A126942F40062D74B43
:105780001A6107E0D54A126942F48062D34B1A616C
:1057900000E000BF00BFD14A126942F48072CF4BD3
:1057A0001A61002000E0401CB0F5C04FFBD3CB4A8B
:1057B000526942F01002C94B5A61704708B5032084
:1057C00000906846FFF7B2FF08BDF0B503460D46EE
:1057D000591E002604E0C24850F826000244761CF8
:1057E000AE42F8DB022D10DD4FF4C87093FBF0F4ED
:1057F00000FB143040B113F0030F06D1642093FB7B
:10580000F0F400FB143000B1521C642091FBF0F066
:105810000C46CF1701EB977701EBA707381A4FF427
:10582000C87791FBF7F738441044072790FBF7FC43
:1058300007FB1C00F0BD10B50288A2F2B27240F264
:105840006D135A430A600288D31702EB93739B10BF
:10585000A3F5F6730C6823440B604388A14C34F81D
:1058600013300A681A440A6083880A681A440A6076
:10587000028812F0030F05D14288022A02D80A6872
:10588000521E0A60984B0A685A43C388C3EB4314FC
:10589000C4EB032302EB03120389C3EB031302EBF4
:1058A0008302837A1A440A600A68521C0A6010BD97
:1058B000F0B505462A688C4FB2FBF7F3B2FBF7FC54
:1058C00007FB1C224FF46167B2FBF7F7CF804FF460
:1058D0006167B2FBF7FC07FB1C223C27B2FBF7F722
:1058E0000F813C27B2FBF7FC07FB1C278F7240F2AD
:1058F000B2770F8040F26D160CE09B1B0F887F1C67
:105900000F800F8817F0030F02D040F26D1601E0F0
:105910004FF4B776B342F0D80F8817F0030F01D0D9
:10592000724C00E0724C012007E0275C9F4201D3DB
:10593000488004E0275CDB1B401C0C28F5D900BF25
:105940008B80F0BD38B5044604B938BD63480068A3
:10595000009021466846FFF7ABFF00BFF5E75F48C0
:10596000006808B1002070470120FCE738B5044604
:1059700004B938BD69462046FFF75DFF0098401E18
:105980005649886000BFF4E7544AD26822F47F4247
:10599000524BDA601A46D26822F0FF02DA601A46E9
:1059A000D2684FF47F4303EA00231A434B4BDA607B
:1059B0001A46D268CBB21A43484BDA607047474860
:1059C0000068704745488068704738B5044604B998
:1059D00038BD69462046FFF72EFF4048406920F059
:1059E00010003E494861009808600846406940F050
:1059F0001000486100BFEBE73849496921F0100108
:105A0000364A516111460860496941F010015161FF
:105A1000704710B5044634B1012C15D0022C1AD0B1
:105A2000032C22D106E02D48C06920F002002B494A
:105A3000C8611BE02948C06940F002002749C861DD
:105A4000422000F03DF811E02448C06920F0040035
:105A50002249C8610AE02148C06940F004001F499A
:105A6000C861422000F02CF800E000BF00BF10BD6C
:105A700008B120490860704710B51E48006810B191
:105A80001C49086880471548C06910F0020F08D00B
:105A90001248406910F0020F03D0104800680F4907
:105AA00008600E48C06910F0040F08D00B48406928
:105AB00010F0040F03D0094880680849886010BDC1
:105AC00000F01F020121914042094FF0E02303EB57
:105AD0008202C2F8001170470080044000D00340E9
:105AE0005000FF1FCE91000080510100B4910000D2
:105AF000C19100004C00FF1F2DE9FF4F82B004460A
:105B00008C46DDF810B0FE4850F82400006810F014
:105B1000004F03D1002006B0BDE8F08F4FF0FF32F8
:105B20004FF000084FF00009012001900020009084
:105B3000002126E000231FE0012518E0F14850F87D
:105B40002100DFF8C4E35EF823E000FB0EFE0598B9
:105B50006843B0FBFEF6B34508D3ABEB060A5245EB
:105B600004D9524688469946009601956D1C032D2E
:105B700001D2002AE2D15B1C102B01D2002ADBD11A
:105B8000491C042901D2002AD4D1DD4850F8240050
:105B90000C3050F82C70DD4807400198401E0BD0A7
:105BA0004FF4403000EA084040F0004009F00F0E8A
:105BB00040EA0E00074308E04FF4403000EA084096
:105BC00009F00F0E40EA0E000743CD4850F82400BC
:105BD0000C3040F82C7000989DE72DE9F8430546FD
:105BE0000C4616461F46DDE90889C54850F82500D1
:105BF0000C3050F8240020F0F041C14850F8250046
:105C00000C3040F82410BE4850F825000C3050F8F5
:105C10002400791E4FF0F04202EAC1610843B849FE
:105C200051F825100C3141F82400B8F1000F03D0D1
:105C3000B8F1010F1ED10EE0B14850F825000C302C
:105C400050F8240020F08071AD4850F825000C3049
:105C500040F824100FE0AA4850F825000C3050F806
:105C6000240040F08071A64850F825000C3040F820
:105C7000241000E000BF00BF36B1012E21D0022E5B
:105C80003CD0032E75D156E09D4850F825000C30CD
:105C900050F8240020F08061994850F825000C301D
:105CA00040F82410964850F825000C3050F8240095
:105CB00020F00071924850F825000C3040F8241074
:105CC00058E08F4850F825000C3050F8240020F0A0
:105CD00080618B4850F825000C3040F8241088482B
:105CE00050F825000C3050F8240040F00071844832
