:020000040000FA
:10000000B01DFF1FC90400006B270000D3040000CF
:10001000D5040000D7040000D9040000000000004F
:10002000000000000000000000000000DB040000F1
:10003000DD04000000000000DF040000E104000017
:10004000DF300000F53000000B31000021310000EE
:1000500051310000673100007D3100009331000014
:10006000A9310000BF310000D5310000EB310000A4
:1000700001320000173200002D3200004332000030
:10008000E3040000E3040000E3040000E3040000D4
:10009000E3040000E3040000B76D0000E304000087
:1000A000055400002554000027610000476100004E
:1000B0006761000051260000E3040000E304000033
:1000C000E3040000E3040000E3040000E304000094
:1000D000E304000075260000E3040000E3040000D0
:1000E000E3040000E3040000E3040000E304000074
:1000F000E3040000656A0000E3040000C96A000030
:10010000E30400002D6B0000E3040000916B00008D
:10011000E3040000F56B0000E3040000E3040000CA
:10012000E3040000891E0000991E0000E3040000A3
:10013000E3040000E3040000D94500003F4600004E
:10014000A5460000E3040000C15B0000E3040000DA
:10015000D3570000F3570000135800003358000035
:10016000E3040000E3040000E3040000E3040000F3
:10017000AF380000CF380000E3040000E3040000C3
:10018000E30400006B2C0000D12C0000E3640000AD
:10019000E30400005B560000E3040000E94B0000AC
:1001A0000F4C0000354C00005B4C0000814C0000FF
:1001B000E3040000E3040000E3040000E3040000A3
:1001C000E3040000E3040000E3040000E304000093
:1001D000E3040000E3040000E3040000E304000083
:1001E000E3040000E3040000E3040000E304000073
:10040000FFFFFFFFFFFFFFFFFFFFFFFFFEFFFFFFFD
:1004100000F002F800F047F80AA090E8000C8244CF
:100420008344AAF10107DA4501D100F03CF8AFF2AC
:10043000090EBAE80F0013F0010F18BFFB1A43F0C2
:100440000103184728A0000048A00000103A24BF6C
:1004500078C878C1FAD8520724BF30C830C144BF29
:1004600004680C607047000000230024002500266B
:10047000103A28BF78C1FBD8520728BF30C148BF07
:100480000B607047662908F08187002070471FB510
:1004900006F088FF04000020002108F089F9E060E0
:1004A0001FBD10B510BD07F097F81146FFF7EFFF1D
:1004B00000F03EF907F0B5F803B4FFF7F2FF03BC14
:1004C00007F0F6F8C0BA7047094880470948004766
:1004D000FEE7FEE7FEE7FEE7FEE7FEE7FEE7FEE7F4
:1004E000FEE7FEE704480549054A064B7047000051
:1004F0000905000011040000B009FF1FB01DFF1F17
:10050000B00DFF1FB00DFF1F4CF220508049C88175
:100510004DF62810C8814FF4E97008804FF0FF3085
:100520007C49486400207C4908707A48406820F083
:100530000100784948602420784948709A20087062
:100540000846C07800F01F00C87003200871002022
:10055000487100BF7148807900F002000028F9D08E
:1005600000BF6E48807900F010000028F9D100BF6C
:100570006A48807900F00C000828F9D118206749F2
:1005800008715A20487166486249486400BF634850
:10059000807900F020000028F9D000BF5F48807902
:1005A00000F040000028F9D01A205C49087000BF14
:1005B0005A48807900F00C000C28F9D100BF574848
:1005C000807900F040000028F9D07047534A127833
:1005D00002F0C002002A67D1504A527902F040026C
:1005E000002A51D14D4A127802F00402C2B94B4A96
:1005F000127B02F001020AB94A4801E04FF40040C0
:10060000464A1278C2F3C20301229A40D1B2B0FB2B
:10061000F1F0424A527802F030021AB1400901E08A
:100620004FF400403D4AD27802F0E00202F01F038E
:1006300043BB5211082A25D2DFE802F004080C104F
:1006400014181C2000EB8002D0011CE000EB80029B
:10065000100218E0C0EB0012D00114E000EB8002A1
:10066000500210E04FF4377250430CE04FF4B76281
:10067000504308E040F69502504304E040F67132E2
:10068000504300E000BF38E0244A127902F01F0214
:10069000511C244AB2FBF1F0204A527902F01F02A9
:1006A00002F11801484328E01C4A127802F0C00207
:1006B000402A11D1194A527802F0010212B94FF4BE
:1006C00000401AE0154A127AC2F3420301229A400E
:1006D000154BB3FBF2F010E0104A127802F0C002A2
:1006E000802A09D10D4A127B02F001020AB90D4895
:1006F00003E04FF4004000E07047064A526C0123CB
:1007000003EB1272B0FBF2F2084B1A6000BFF3E782
:100710000020054000800440005006400040064094
:100720000000130180F0FA0200093D000000FF1FE5
:1007300000F0B6F800F0CAF800F0BAF900F0D2FE06
:1007400010E00021042004F070F900F0F4F80446F1
:10075000204600F0F4F80448006800F009F914207D
:1007600001F0F7FFEDE700000400FF1F10B50422C1
:100770000221084604F017F900220221084604F07D
:1007800021F93222002145F2C10003F02BFD40F295
:10079000EE220021012003F0DAFC10BD10B500218B
:1007A000924801F0D3FA0021914801F0CFFA10BD30
:1007B00010B54FF4E13149F6C04006F027F910BDFD
:1007C00010B504F0FEFE8B49086004F03AFF10BD3E
:1007D00010B58949002004F092FFAFF21B01002000
:1007E00004F0ECFF0121002004F093FF10BD10B5D0
:1007F000824804F0EFFE10BD10B50422002110461F
:1008000004F0D1F800221146042004F0DBF80422A1
:100810000221012004F0C7F804221146012004F04F
:10082000C2F802220C21104604F0BDF802220D216C
:10083000104604F0B8F802220E21104604F0B3F876
:1008400002220F21104604F0AEF8022210211046B9
:1008500004F0A9F802221121104604F0A4F80222A3
:100860001221104604F09FF802221321104604F0D2
:100870009AF810BD10B504220621032004F093F865
:1008800004220721032004F08EF80422082103200B
:1008900004F089F804220921032004F084F810BD33
:1008A00010B501F052FFFFF7E5FF00F009FCFFF77C
:1008B000A3FFFFF79CFFFFF78BFFFFF779FFFFF721
:1008C0006DFFFFF753FF00F00DFE10BD2DE9F05F47
:1008D000474801F0B9FA834608F031FA8046002211
:1008E000474B08F069F806460022464B08F08EFA9E
:1008F000044607F073FF8246504608F0B1FC0446F8
:100900000022414B08F080FB05D240A202210120C9
:1009100000F073FD04E041A20221012000F06DFD12
:10092000BDE8F09F002100BF02E000BF4A1CD1B229
:100930008142FADB704710B500F07AF810BD2DE95E
:10094000F041044622460021012000F003FE064645
:100950000F463046394600F08BFF804608F0ACFC6D
:1009600005462A460021012003F0F1FBBDE8F08195
:100970002DE9F047824600225146104600F0EAFD7C
:1009800004460D462948006808F0D9F90646224673
:100990002B4607F055FF804608F0A2F9234908606E
:1009A00008460068B0F57A7F05DB4FF47A720021C3
:1009B000084603F0CCFB1D48006800280ADD1B48F0
:1009C0000068B0F57A7F05DA184800210268084609
:1009D00003F0BDFB15480068002804DC0022114626
:1009E000104603F0B4FBBDE8F0870000084040006B
:1009F000214430000400FF1FA0860100104B1000AE
:100A000000408F4000B4B44000001C40566F6C742E
:100A1000616765206973206F6B000000566F6C740E
:100A2000616765206973204C4F5700000800FF1F65
:100A300010B500220421012003F0C4FF00BF0122F1
:100A40000221104603F0BEFF00BF01220421104620
:100A500003F0B8FF00BF00220221012003F0B2FF23
:100A600000BF002414E000220421012003F0AAFFAB
:100A700000BFC34801F0E8F9C1B2C24AA01C11543A
:100A800001220421104603F09DFF00BF601CC4B288
:100A9000802CE8DB00BF01220421104603F092FF06
:100AA00000BF00220421012003F08CFF00BF10BD15
:100AB00010B5002400220421012003F083FF00BFB1
:100AC00001220221104603F07DFF00BF0122042114
:100AD000104603F077FF00BF00220221012003F03F
:100AE00071FF00BF01240DE000220421012003F06A
:100AF00069FF00BF01220421104603F063FF00BF1D
:100B0000601CC4B2812CEFDB10BD30B50146002360
:100B100014E000220CE08D5C501C085C854205DD71
:100B20008C5C501C085C8854501C0C54501CC2B285
:100B3000C3F105009042EEDC581CC3B2052BE8DB84
:100B4000C87830BD02468A4201DC1046704708462C
:100B5000FCE72DE9F04705460E461446089F31464E
:100B60002846FFF7EFFF82462146FFF7EBFF81465D
:100B70001946FFF7E7FF80463946FFF7E3FFBDE878
:100B8000F08702468A4201DB104670470846FCE7C0
:100B90002DE9F04705460E461446089F3146284683
:100BA000FFF7EFFF82462146FFF7EBFF814619462C
:100BB000FFF7E7FF80463946FFF7E3FFBDE8F08720
:100BC0002DE9FE416F4880786E4908700846C0786C
:100BD0004870084690F8800081F88200084690F836
:100BE000810081F88300002440E00025A04609E050
:100BF000601900F0FF08634810F8080001A9485583
:100C0000681CC5B2052DF3DB9DF8080000909DF827
:100C100007309DF806209DF805109DF80400FFF7A9
:100C2000B7FF07469DF8080000909DF807309DF833
:100C300006209DF805109DF80400FFF78AFF064680
:100C40005049A01C085CB84203D0A01C085CB0420C
:100C500005D101A8FFF759FF4B49085504E0494960
:100C6000A01C085C48490855601CC4B2802CBCDB41
:100C7000BDE8FE8170B5054600240CE04248005DE9
:100C8000A84203DBFF204049085502E000203E490E
:100C90000855601CC4B2802CF0DB00240FE03A48F9
:100CA00090F87F00FF2803D1FE20374981F87F00AC
:100CB0003548015D002005F03DFC601CC4B2802C6D
:100CC000EDDBFF21002005F035FC70BD30B52E486E
:100CD0000478057801230DE02B48C15C2846FFF716
:100CE00050FF05462848C15C2046FFF72BFF04460D
:100CF000581CC3B2802BEFDB291901EBD170C0F374
:100D0000470030BDF0B500210BE0C1F140061E4F99
:100D1000BE5D1EB9C1F14006F3B204E000234E1CD3
:100D2000F1B24029F1DB00BF00210BE001F14006E8
:100D3000154FBE5D1EB901F14006F2B204E07F22FC
:100D40004E1CF1B24029F1DB00BF1C461546082BB2
:100D500007DC502A05DB582A03DC01260B4F3E70C6
:100D60000CE0282B05DB6E2A03DB0126084F3E70C2
:100D700004E0D61806EBD677C7F34700F0BD0000B5
:100D800008404000E800FF1F6C01FF1F0C00FF1F20
:100D90000D00FF1F0E480068704700B5FFF7FAFF0F
:100DA0000346C3F30331C1EB411000F59B721046BB
:100DB00000BD00B5FFF7EEFF0346C3F3034107296B
:100DC00002D901F1260201E0C1F12D02104600BD59
:100DD00090F00F4070B5044608250122062103203B
:100DE00003F0F0FD00220821032003F0EBFD1AE0E0
:100DF00004F0800028B101220921032003F0E2FD64
:100E000004E000220921032003F0DCFD0122082177
:100E1000032003F0D7FD00BF00220821032003F0C8
:100E2000D1FD6006040E2800A5F10101CDB2DFD18D
:100E300070BD70B50446082500220621032003F08A
:100E4000C1FD00220821032003F0BCFD1AE004F0DC
:100E5000800028B101220921032003F0B3FD04E042
:100E600000220921032003F0ADFD01220821032007
:100E700003F0A8FD00BF00220821032003F0A2FD1B
:100E80006006040E2800A5F10101CDB2DFD170BDCE
:100E900070B504460D4605F1B001C8B2FFF7C9FFB1
:100EA000102141EA1410FFF7C4FF04F00F0141F0D4
:100EB0000100FFF7BEFF70BD70B50646002415E0C7
:100EC00004F1B001C8B2FFF7B4FF0120FFF7B1FF92
:100ED0001020FFF7AEFF002504E03046FFF77AFF51
:100EE000681CC5B2802DF8DB601CC4B2082CE7DB9F
:100EF00070BD70B5002415E004F1B001C8B2FFF771
:100F000098FF0120FFF795FF1020FFF792FF0025C3
:100F100004E00020FFF75EFF681CC5B2802DF8DBFF
:100F2000601CC4B2082CE7DB70BD07E040F237510B
:100F300000BF0A00A1F10101FBD1401E0028F5D13C
:100F4000704710B504462046FFF773FF10BD70B51B
:100F500004462546E11704EB11710911A4EB0111B8
:100F6000C8B2FFF766FF2546E11704EB11710911BE
:100F70001031C8B2FFF75DFF70BD10B504462020E8
:100F8000FFF757FF2046FFF754FF10BD70B5054629
:100F90000C462120FFF74DFF2846FFF74AFF204669
:100FA000FFF747FF70BD70B505460C462220FFF7DE
:100FB00040FF2846FFF73DFF2046FFF73AFF70BD90
:100FC00010B5044644F04000FFF733FF10BD10B5E4
:100FD00004468120FFF72DFF2046FFF72AFF10BDB2
:100FE00010B504468D20FFF724FF44F01000FFF7F2
:100FF00020FF10BD10B5044644F0A000FFF719FF14
:1010000010BD10B5044644F0A400FFF712FF10BD58
:1010100010B5044644F0A600FFF70BFF10BD10B555
:101020000446A820FFF705FF2046FFF702FF10BD8A
:1010300010B5044644F0AE00FFF7FBFE10BD10B53E
:10104000044644F0B000FFF7F4FE10BD10B50446AE
:1010500044F0C000FFF7EDFE10BD10B50446D320EC
:10106000FFF7E7FE2046FFF7E4FE10BD10B504468B
:10107000D520FFF7DEFE2046FFF7DBFE10BD10B5E2
:101080000446D920FFF7D5FE2046FFF7D2FE10BD5B
:1010900010B50446DA20FFF7CCFE44F00200FFF75B
:1010A000C8FE10BD10B50446DB20FFF7C2FE204687
:1010B000FFF7BFFE10BD10B5E320FFF7BAFE10BD6D
:1010C00010B501220821032003F07CFC0022072137
:1010D000032003F077FC3220FFF727FF01220721CE
:1010E000032003F06FFC0020FFF7A2FF8020FFF732
:1010F000BDFF3F20FFF793FF0020FFF7AEFF00206A
:10110000FFF75EFF0420FFF76BFF0220FFF735FFBC
:101110000120FFF76FFF0820FFF798FF1020FFF76F
:10112000B7FFCF20FFF753FFF120FFF7A8FF4020C4
:10113000FFF7B8FF0020FFF764FF0020FFF768FF0C
:101140000120FFF775FF0020FFF7B6FE00210846DB
:10115000FFF79EFE10BD70B505460C462146284699
:10116000FFF796FE2046E11704EB5171C910A4EB7E
:10117000C10201219140CEB2B02101EBE401C8B21D
:10118000FFF757FE102141EA1510FFF752FE05F058
:101190000F00FFF74EFE3046FFF71CFE70BD2DE935
:1011A000F04707460C4690461D46DDF820A0E110AA
:1011B0003846FFF76DFE3E4613E0A146E11704EB0B
:1011C0005171C910A4EBC10201219140C8B2FFF7CF
:1011D00001FEBAF1010F02D13220FFF7A6FE701C0A
:1011E000C6B24645E9DDE9103846FFF751FE3E46F6
:1011F00013E0A946E91705EB5171C910A5EBC1022F
:1012000001219140C8B2FFF7E5FDBAF1010F02D10B
:101210000520FFF78AFE701CC6B24645E9DDBDE831
:10122000F0872DE9F0470446884615464FF000093F
:101230000026002720E0E85D203800F0FF097E2C22
:1012400004DD002408F1010000F0FF0841462046BB
:10125000FFF71EFE002609E009EB49019D4A02EB5B
:101260004101885DFFF7B6FD701CC6B2062EF3DBA8
:10127000A01DC4B2781CC7B2E85D0028DBD1BDE870
:10128000F0872DE9F04706460F46904600250024DA
:10129000A14631E018F809002038C5B2782E02DDE9
:1012A0000026781CC7B239463046FFF7F1FD00240E
:1012B00007E004EB0511884A505CFFF78BFD601CCA
:1012C000C4B2082CF5DB781CC1B23046FFF7E0FD54
:1012D000002408E004EB051108317F4A505CFFF759
:1012E00079FD601CC4B2082CF4DB06F10800C6B21C
:1012F00009F1010000F0FF0918F809000028C9D120
:10130000BDE8F0872DE9F04781460F46904600245E
:10131000002601256BE00024012513E06F48005DE5
:1013200018F8061088420BD16C49601C095C701CCF
:1013300018F80000814203D1C4EBC400450005E069
:10134000A01CC4B26548005D7F28E7DC00BFB9F18E
:10135000760F03DD4FF00009781CC7B239464846C6
:10136000FFF796FD012D1FD039464846FFF790FD47
:10137000002406E05A49485DFFF72CFD6D1C601CF7
:10138000C4B20E2CF6DB781CC1B24846FFF780FDD4
:10139000002406E05249485DFFF71CFD6D1C601CEF
:1013A000C4B20E2CF6DB1CE0701CC6B239464846AF
:1013B000FFF76EFD002404E00020FFF70BFD601C2A
:1013C000C4B2102CF8DB781CC1B24846FFF760FDB0
:1013D000002404E00020FFF7FDFC601CC4B2102CC8
:1013E000F8DB09F10E0000F0FF09B01CC6B218F8D6
:1013F000060000288FD1BDE8F087F8B506460F46F5
:101400001546002427E0285D7F2814DD285D8DF82F
:101410000000601C285C8DF8010000208DF802009F
:101420006A4639463046FFF76DFF06F10E00C6B238
:10143000A01CC4B20FE0285D8DF8000000208DF8DC
:1014400001006A4639463046FFF71BFF06F10800E7
:10145000C6B2601CC4B2285D0028D4D1F8BD2DE905
:10146000F05F06460F4690461C46DDF828A04FF078
:10147000000BE11704EB5171C910A4EBC10131B9A4
:101480002046E11704EB5171C1F3C70506E0204681
:10149000E11704EB5171C910491CCDB23D4614E06F
:1014A00029463046FFF7F4FCB1460AE059460BF1F5
:1014B000010B1AF80100FFF78DFC09F1010000F0A3
:1014C000FF09C145F2DB681CC5B2A542E8DDBDE8F5
:1014D000F09F0000809400007E990000A896000014
:1014E000C296000010B50020BC4909680862BB49DB
:1014F0000968486200214FF08040B84A1268C2E98A
:101500000210B64A126811615161B44A12689161C1
:10151000D161FFF742FCB149096808600020AF497A
:1015200009688864AD490968C8640021AC48AB4AC1
:101530001268C2E90C100020A84A12689063D063B8
:10154000A848A64A1268C2E910104020A3490968B9
:10155000886210BD2DE9F04F8FB081468A469346D0
:10156000B9F1000F7ED1A0480078012803D09F4830
:10157000007801280DD19C48007820B100209A49BC
:1015800008709B4D92E000209849087040F2EF25CA
:101590008CE0924800680068A0EB0A042646201EF2
:1015A00001DB014600E0414214292DDD8B49096829
:1015B000086A07F0C4FBCDE9060188480068416964
:1015C0000069CDE90401DDE9062307F01FFCCDE940
:1015D0000A01204607F0B3FBCDE906017F48016808
:1015E000D1E90201CDE90401DDE9062307F00EFC93
:1015F000CDE90801DDE90A2307F022F9CDE90C0164
:1016000007F06EFB054647E074490968486A07F031
:1016100096FBCDE9060171480068C1698069CDE992
:101620000401DDE9062307F0F1FBCDE90A016B496E
:101630000968086A07F083FBCDE902016748016881
:10164000D1E90401CDE90001DDE9022307F0DEFB69
:10165000CDE90601204607F072FBCDE902015F48A3
:10166000016800E028E0D1E90201CDE90001DDE9EF
:10167000022307F0CBFBCDE90401DDE9062307F0E7
:10168000DFF8CDE90801DDE90A2307F0D9F8CDE953
:101690000C0107F025FB05460E9550480068006ACE
:1016A0004E49096848624D4800680462284607F0C0
:1016B00046FB0FB0BDE8F08F4848006890F828005E
:1016C000ABEB000040B24B490870084690F90000AF
:1016D000400091F9001010FB01F0C0F59B703F49EC
:1016E000096808603D4800680068962803DA96207B
:1016F0003A49096808603F4890F9000000281CDB5F
:101700003C4890F9000007F01AFBCDE90C0139487C
:1017100090F9000007F013FB0022374BCDE90801D8
:1017200007F074FBCDE90A01DDE90C2307F06EFB3D
:101730002A4A1268C2E90C011BE02E4890F9000009
:1017400007F0FDFACDE90C012A4890F9000007F0F6
:10175000F6FA0022284BCDE9080107F057FBCDE946
:101760000A01DDE90C2307F051FB1C4A1268C2E9AB
:101770000C011A490968886C07F0E1FACDE9080103
:1017800016480068416C006CCDE90601DDE90823CC
:1017900007F03CFBCDE90C01164890F9000007F07A
:1017A000CEFACDE908010D480068416B006BCDE928
:1017B0000601DDE9082307F029FBCDE90A01DDE98F
:1017C0000C2307F03DF8074688460A4890F90000C8
:1017D000024909688864384641466AE71000FF1FDD
:1017E00000000840000014400D00FF1F0C00FF1F08
:1017F0000CFEFFFF1400FF1F0000E03F2DE9F04F3B
:101800008BB004460D46FFF7D4FAC0B20190CDE983
:101810000845334A334BDDE9080107F0F7FACDE913
:101820000401019807F0A2FA804600222E4B07F02F
:1018300021FC064606F082FF824652460B460020F7
:101840002A4907F0B9F8CDE9060104A80FC807F046
:10185000B3F8804606F060FE0646254A254B07F0A1
:10186000D5FACDE90201DDE902010BB0BDE8F08F48
:101870002DE9F047804689460022134640464946F6
:1018800007F0F2F91CD000221B4B4046494607F0F6
:10189000F1FB04460D460022184B2046294607F06E
:1018A000B3FB02D80024154D0CE00022134620465D
:1018B000294607F06FFA02D20024114D02E001E040
:1018C00000240D4D26462F4632463B460DA005F01E
:1018D00087FA2946204606F081FFBDE8F087000020
:1018E000E17A14AE47E1CA3F0080564000003A401A
:1018F000AA9F9622DCA54C400070874000EC9040E7
:101900000000F03F536572766F5F70776D5F6475AE
:101910007479203D202566000246F94850F82200DF
:1019200050F8210000F0800008B10020704701202D
:10193000FCE770B5134633B1012B1CD0022B25D028
:10194000032B48D13CE0EF4C225602F01F05012446
:10195000AC40ED4D560945F8264000BFE84A52F824
:10196000202052F8212022F04002E54C54F820407B
:1019700044F8212030E0E24A52F82020126A22F096
:101980000402DF4C54F82040226225E0DC4A52F881
:10199000202052F8212042F04002D94C54F8204037
:1019A00044F82120D74C225602F01F050124AC40F8
:1019B0005509AD0005F1E025C5F8004100BF0BE079
:1019C000CF4A52F82020126A42F00402CC4C54F85C
:1019D0002040226200E000BF00BF70BDF0B50446A9
:1019E000C74850F82400406A40F00300C44951F849
:1019F00024104862C24850F82400406A40F00300B6
:101A0000BF4951F824104862BD4850F8240080684E
:101A100040F00300BA4951F824108860B84850F8E3
:101A20002400406A40F04000B54951F82410486253
:101A3000B34850F82400406A40F08000B04951F8A3
:101A400024104862002211462046FFF772FF00274B
:101A500000E07F1CAD488742FBD3A94850F8240022
:101A6000406A00F0400008B10120F0BD0025A44804
:101A700050F82400C06C0544A14850F82400806C44
:101A800005449F4850F82400406C05449C4850F899
:101A90002400006C05449A4850F82400C06B0544AB
:101AA000974850F82400806B05444FF4004040EA0A
:101AB00055050026924850F82400C06E0644904810
:101AC00050F82400806E06448D4850F82400406E83
:101AD00006448B4850F82400006E0644884850F8AD
:101AE0002400C06D0644864850F82400806D0644EA
:101AF0004FF4004040EA5606814850F82400406AFE
:101B000020F080007E4951F8241048627C4850F84B
:101B10002400C5627A4850F8240006630020A4E738
:101B200010B504467A49206851F830000068784AB8
:101B3000216802EBC10149680843216852F831105D
:101B400008602068FFF74AFF6D49206851F82000BF
:101B5000806820F003006A4A216852F821108860EA
:101B60001146206851F820008068617901F0030176
:101B70000843216852F8211088601146206851F806
:101B80002000006A20F00300216852F8211008624A
:101B90001146206851F82000006AA17A01F0030183
:101BA0000843216852F8211008621146206851F854
:101BB0002000806820F00C00216852F82110886015
:101BC0001146206851F820008068A1790C2202EAB1
:101BD000810108434A4A216852F82110886020791F
:101BE00001280BD11146206851F82000006A40F00E
:101BF0004000216852F8211008620BE0404920683B
:101C000051F82000006A00F040003D4A216852F877
:101C100021100862207A60B93949206851F8200003
:101C2000406A40F00800364A216852F821104862A4
:101C30000BE03349206851F82000406A20F008008A
:101C40002F4A216852F821104862607A05287AD21A
:101C5000DFE800F00310263E60002949206851F8B3
:101C60002000406A20F00300254A216852F8211024
:101C7000486269E02249206851F82000406A20F05B
:101C800003001F4A216852F821104862114620685B
:101C900051F82000406A216852F82110486253E050
:101CA0001749206851F82000406A20F00300144AC8
:101CB000216852F8211048621146206851F820002E
:101CC000406A40F00100216852F8211048623BE070
:101CD0000B49206851F82000406A20F00300084AB0
:101CE000216852F8211048621146206851F82000FE
:101CF000406A40F00200216852F82110486223E057
:101D0000709F0000889F000080E100E0A086010035
:101D1000789F00006449206851F82000406A20F054
:101D20000300614A216852F8211048621146206878
:101D300051F82000406A40F00300216852F8211059
:101D4000486201E0FFE700BF00BF10BD73B584B07B
:101D50000E4604AC207800F00700019001208DF8B9
:101D600009008DF80A6000208DF808008DF80B003E
:101D700001208DF80C0000208DF80D0001208DF859
:101D80000E00002518E02388C3F38212C3F3442316
:101D90002B44D9B22378C3F3C20002F0BFFC2288DF
:101DA000C2F344222A44D1B22278C2F3C2000022F4
:101DB00002F0D9FC681CC5B22068C0F38430A84288
:101DC000E1DC01A8FFF7ACFE207800F0070006B0C8
:101DD00070BD10B5344B53F8203053F8223023F047
:101DE0001F03314C54F8204044F822302E4B53F856
:101DF000203053F8223001F01F0423432A4C54F8BA
:101E0000204044F8223010BD49B9274A52F820201A
:101E1000D26822F01002244B53F82030DA600129F6
:101E200009D1214A52F82020D26842F010021E4BFC
:101E300053F82030DA60704702461B4850F8220001
:101E4000103050F82100704771B56C46207800F0D2
:101E500007052068C0F3C446002231462846FFF734
:101E6000B8FF00BF104850F82500006800F080005F
:101E70000028F7D000212846FFF7DEFF78BD11B11A
:101E80000A4A42F82010704710B50848006810B19F
:101E900006490868804710BD10B50448406810B175
:101EA00002494868804710BD709F00001800FF1F5E
:101EB0000246072928D2DFE801F004090E13181D95
:101EC00022005068FC4B184350601FE05068FB4BE9
:101ED000184350601AE05068F94B1843506015E001
:101EE0005068F84B1843506010E05068F64B1843A8
:101EF00050600BE05068F54B1843506006E05068A6
:101F0000F34B1843506001E00120704700BF0020F0
:101F1000FBE710B5EF4B53F820301B6843F0A043AC
:101F2000EC4C54F82040236000BFEA4B53F82030BB
:101F30001B6803F08073002BF7D0B2F5006F09D354
:101F4000C2F31104E34B53F8203003F5086343F860
:101F5000214009E0E04B03EA8244DE4B53F8203095
:101F600003F5086343F82140DA4B53F820301B682F
:101F700023F0A043D74C54F82040236000BFD54B3A
:101F800053F820301B6803F08073002BF7D110BD8D
:101F900070B504460D461646324629462046FFF7E0
:101FA000B8FFB6F5006F41D3CA4850F8240080301E
:101FB00000EB0510006840F40011C64850F82400FA
:101FC000803000EB05100160C24850F824008030DA
:101FD00000EB0510006820F48001BE4850F8240092
:101FE000803000EB05100160BA4850F824008030C2
:101FF00000EB0510406800F06041B64850F824003E
:10200000803000EB05104160B24850F82400803069
:1020100000EB0510406826F060410843AD4951F8D7
:102020002410803101EB0511486032E0A94850F8D6
:102030002400803000EB0510006820F4C001A548A2
:1020400050F82400803000EB05100160A14850F8E2
:102050002400803000EB051040689F49C9430840C8
:102060009C4951F82410803101EB051148609948D2
:1020700050F82400803000EB05104168964800EAD3
:1020800086400143934850F82400803000EB05104F
:102090004160904850F82400803000EB0510006843
:1020A00020F070618B4850F82400803000EB051060
:1020B0000160884850F82400803000EB051000686B
:1020C00040F08061834850F82400803000EB051018
:1020D000016070BD70B504468049206851F8300039
:1020E00000687E4A216802EBC10149680843216803
:1020F00052F8311008607749206851F82000406894
:1021000040F40050734A216852F82110486011468B
:10211000206851F82000006820F00040216852F843
:10212000211008601146206851F82000006840F036
:102130000070216852F82110086000BF65492068CE
:1021400051F82000006800F000700028F6D12068E7
:1021500051F82000006840F0A0405E4A216852F823
:102160002110086000BF5B49206851F8200000681A
:1021700000F080700028F6D0002526E00021554AA6
:10218000206852F82000803000EB051001602068C4
:1021900052F82000803000EB05104160206852F8B2
:1021A0002000803000EB05108160206852F820008C
:1021B000803000EB0510C1604949206852F82000CA
:1021C00000F5086040F825106D1C102DD6D341494C
:1021D000206851F82000006840F480303D4A2168B2
:1021E00052F82110086021793A4B226853F82200F6
:1021F000FFF75EFE3749206851F82000006820F0A4
:10220000A040344A216852F8211008601146206825
:1022100051F82000006820F0A040216852F82110F9
:10222000086000BF2B49206851F82000006800F0CA
:1022300080700028F6D100BF2649206851F82000A0
:10224000006800F000600028F6D170BD73B582B060
:102250000E4602AC207800F0070000908DF8046074
:102260006846FFF737FF00250CE02388C3F382128E
:10227000C3F344232B44D9B22378C3F3C20002F042
:102280004DFA6D1C2068C0F38430A842EDD8207848
:1022900000F0070004B070BD02460E4850F822005E
:1022A000803000EB01100068C0F30363082B00D0FE
:1022B000C3B90020704700000400A47C02009263B0
:1022C000020092310400A418020092130200920945
:1022D000020092048C9F00000000FC1F949F0000ED
:1022E000FFFF0300012070472DE9FC4304460D4623
:1022F00017469846DDF82490002000900190102D9C
:1023000002D2B9F1080F02DD0120BDE8FC832946A5
:102310002046FFF7C1FF08B10220F6E7E44850F875
:102320002400006B0121A9400843E14951F8241021
:102330000863002615E0042E09D218F80600C6F13D
:102340000301C900884000990843009008E018F88C
:102350000600C6F10701C9008840019908430190B1
:10236000761C4E45E7D3D24850F82400803000EB6D
:10237000051000998160CE4850F82400803000EBB1
:1023800005100199C160CA4850F82400803000EB64
:102390000510006820F47021C54850F824008030F2
:1023A00000EB05100160C24850F82400803000EBBB
:1023B000051000684FF4702101EA09410843BC4947
:1023C00051F82410803101EB05110860B84850F82D
:1023D0002400803000EB0510006820F48011B44820
:1023E00050F82400803000EB05100160B7F5006F55
:1023F00031D3AF4850F82400803000EB051000685E
:1024000040F48001AA4850F82400803000EB051009
:102410000160A74850F82400803000EB05104168A7
:1024200027F060400143A24850F82400803000EBC0
:10243000051041609E4850F82400803000EB0510E4
:10244000006840F400119A4850F82400803000EBF6
:102450000510016021E0964850F82400803000EB20
:1024600005104068934901EA87410843904951F8B3
:102470002410803101EB051148608D4850F824008C
:10248000803000EB0510006820F40011884850F8F7
:102490002400803000EB05100160854850F82400CE
:1024A000803000EB0510006820F07061804850F823
:1024B0002400803000EB051001607D4850F82400B6
:1024C000803000EB0510006840F04061784850F81B
:1024D0002400803000EB05100160002015E711B1E9
:1024E000754A42F82010704770B504460D461646EE
:1024F00036B1012E20D0022E0ED0032E38D127E087
:102500006B4850F82400816A0120A8408143684844
:1025100050F8240081622CE0654850F82400816A5C
:102520000120A8400143624850F8240081626349B9
:10253000085700F0B1F81CE05D4850F82400816AAB
:102540000120A84081435A4850F82400816210E0DD
:10255000574850F82400816A0120A840014354489C
:1025600050F8240081625549085700F095F800E0C2
:1025700000BF00BF70BDFCB504460D461E460020DE
:10258000009001904A4850F82400803000EB05107C
:102590000068C0F3036707F0010008B10220FCBD2A
:1025A000434850F82400006B4FF0010C0CFA05FC76
:1025B00000EA0C00002845D03D4850F82400D0F82F
:1025C00030C00120A8404CEA000C394850F82400E3
:1025D000C0F830C0364850F82400803000EB0510B9
:1025E0000068C0F30343324850F82400803000EB09
:1025F0000510806800902E4850F82400803000EBD1
:102600000510C0680190002113E0042908D2C1F12F
:10261000030C4FEACC0C009820FA0CF0505407E061
:10262000C1F1070C4FEACC0C019820FA0CF0505481
:10263000491C9942E9D333701D4850F82400816841
:102640000020ACE71A4850F8240081680120A6E772
:1026500010B51948006810B1174908688047144838
:102660000068846A12480068006B204310490968BA
:10267000086310BD10B51048406810B10E49486895
:1026800080470B484068846A09484068006B2043D3
:1026900007494968086310BD00F01F0201219140FD
:1026A0004209920002F1E022C2F8001170470000D6
:1026B0008C9F00000000FC1F2000FF1FA49F000053
:1026C00010B5034600222948406C012404EB107029
:1026D000274C246800FB04F233B1012B0DD0022BF0
:1026E00014D0042B24D11AE02048406C012404EBC0
:1026F0001070B2FBF0F008601CE01C48406C012434
:1027000004EB1070B2FBF0F0086013E01748406C67
:10271000C0F30360401CB2FBF0F008600AE013480D
:10272000406CC0F30340401CB2FBF0F0086001E0D5
:10273000012010BD00BF0020FBE70146086870477C
:1027400003B5684602680A600CBD10B503F06FFD62
:1027500010BD10B50446204603F08FFD10BD10B526
:102760000446204603F06FFD10BD70470080044012
:102770000000FF1FFD49C96A41F48051FB4AD16244
:10278000017911B101291ED10EE0F94A016852F810
:10279000211091F8211041F02001F54B026853F807
:1027A000222082F821100FE0F14A016852F821102E
:1027B00091F8211021F02001ED4B026853F82220FE
:1027C00082F8211000E000BF00BF417931B101293A
:1027D00013D0022938D003297DD15EE0E44A016894
:1027E00052F8211091F8221021F00101E04B02680B
:1027F00053F8222082F822107BE0DD4A016852F86B
:10280000211091F8221041F00101D94B026853F8D0
:10281000222082F822101A46016852F8211091F8FD
:10282000221021F00601026853F8222082F82210BB
:102830001A46016852F8211091F82210026853F8E4
:10284000222082F8221054E0C94A016852F821106F
:1028500091F8221041F00101C54B026853F8222083
:1028600082F822101A46016852F8211091F82210BD
:1028700021F00601026853F8222082F822101A463D
:10288000016852F8211091F8221041F0020102680B
:1028900053F8222082F822102BE0B54A016852F842
:1028A000211091F8221041F00101B14B026853F858
:1028B000222082F822101A46016852F8211091F85D
:1028C000221021F00601026853F8222082F822101B
:1028D0001A46016800E00BE052F8211091F822102E
:1028E00041F00401026853F8222082F8221000E02F
:1028F00000BF00BF817911B101291ED10EE09C4AB1
:10290000016852F8211091F8211021F04001984BF4
:10291000026853F8222082F821100FE0944A0168DF
:1029200052F8211091F8211041F04001904B0268BB
:1029300053F8222082F8211000E000BF00BF8C4A2B
:10294000016852F8211091F8201021F00101884B04
:10295000026853F8222082F820101A46016852F8C3
:10296000211091F8201021F00201026853F8222072
:1029700082F820101A46016852F8211091F82010B0
:1029800021F00401026853F8222082F820101A4630
:10299000016852F8211091F8211041F0800102687D
:1029A00053F8222082F8211070470146704850F8F1
:1029B000210090F82300000970476D4A52F820204A
:1029C00092F8232022F0F002694B53F8203083F86C
:1029D0002320674A52F8202092F82320F02303EAAC
:1029E00001131A43624B53F8203083F823207047B9
:1029F0005F4A52F8202092F8232022F00F025C4B0D
:102A000053F8203083F82320594A52F8202092F8B6
:102A1000232001F00F031A43554B53F8203083F85D
:102A20002320704770B504460D46082D7ED2DFE89E
:102A300005F010041D2E3F5069844E49085700F0E0
:102A40001F02012191404C4A430942F8231000BF64
:102A500095E0474850F8240090F8220020F08000CC
:102A6000434951F8241081F8220088E0404850F88A
:102A7000240090F8210040F004003D4951F8241052
:102A800081F821003B49085700F055F977E03848B4
:102A900050F8240090F8210040F00200344951F829
:102AA000241081F821003349085700F044F966E00A
:102AB0002F4850F8240090F8210040F001002C49E4
:102AC00051F8241081F821002A49085700F033F901
:102AD00055E0274850F8240090F8210040F0040009
:102AE000234951F8241081F82100214850F824008E
:102AF00090F8220040F080001D4951F8241081F820
:102B000022003CE01A4850F8240090F8210040F0E0
:102B10000200174951F8241081F82100144850F898
:102B2000240090F8220040F0800000E026E01049E8
:102B300051F8241081F8220021E00D4850F82400BB
:102B400090F8210040F00100094951F8241081F863
:102B50002100074850F8240090F8220040F080003F
:102B6000034951F8241081F8220008E00080044055
:102B7000A89F0000B09F000080E100E000BF00BF00
:102B800070BD724951F8201091F8211041F01001E8
:102B90006E4A52F8202082F8211070476B4A52F892
:102BA000202092F8222022F01802684B53F820309F
:102BB00083F8222031B101290FD002291AD003292C
:102BC00032D124E0614A52F8202092F822205F4B53
:102BD00053F8203083F8222027E05C4A52F8202066
:102BE00092F8222042F00802584B53F8203083F824
:102BF00022201AE0554A52F8202092F8222042F072
:102C00001002524B53F8203083F822200DE04F4A37
:102C100052F8202092F8222042F018024B4B53F831
:102C2000203083F8222000E000BF00BF704730B59D
:102C30000346002011E011F81040444D55F8235090
:102C400005F8104031F81040240A404D55F8235043
:102C500005EB40056C70441CE0B29042EBDB30BDEC
:102C600011B13B4A42F82010704710B53748006850
:102C700090F8214004F0040048B13448006890F80E
:102C8000200020F004003149096881F8200004F098
:102C9000010048B12D48006890F8200020F00100A4
:102CA0002A49096881F8200004F0020048B1274849
:102CB000006890F8200020F002002449096881F89B
:102CC00020002348006810B121490868804710BDE2
:102CD00010B51E48006890F8214004F0040048B187
:102CE0001A48006890F8200020F00400174909688D
:102CF00081F8200004F0010048B11448006890F801
:102D0000200020F001001149096881F8200004F03A
:102D1000020048B10D48006890F8200020F0020041
:102D20000A49096881F820000948406810B108493B
:102D30004868804710BD00F01F0201219140420900
:102D4000920002F1E022C2F800117047A89F000033
:102D50002800FF1FF849C96B41F00201F64AD16310
:102D60001146096C41F002011164F449C968037805
:102D700001229A409143F14AD160417801F03F012C
:102D80000278EF4BD154817911B1012912D108E0B9
:102D90000178EB4A895C21F040010278E84BD1547C
:102DA00009E00178E64A895C41F040010278E44B91
:102DB000D15400E000BF00BF0022E249037801EBDC
:102DC0004311CA80DF49037801EB43118A834188AC
:102DD000DC4A037802EB431291608188C1F30E0252
:102DE000D849037801EB4311CA828188C1F30E02EE
:102DF000D449037801EB4311CA83D249037801EB2C
:102E00004311C2680A6001898AB2CE49037801EB96
:102E100043118A80CB49027801EB4211C988027CB8
:102E20004FF4E06303EA02221143C64A037802EB3F
:102E30004312D180C349027801EB4211C988027E56
:102E40004FF4784303EAC2221143BE4A037802EBEF
:102E50004312D180BB49037801EB43114269CA6038
:102E6000B849037801EB4311026A0A61818B8AB287
:102E7000B449037801EB43118A82B249027801EB2D
:102E80004211CA8890F8241001F007010A43AD49A5
:102E9000037801EB4311CA80AA49027801EB421181
:102EA000C98890F82C20F82303EAC2021143A54AEE
:102EB000037802EB4312D180A249037801EB43115E
:102EC000826A8A619F49027801EB4211898B41F045
:102ED00008029C49037801EB43118A830178984AE0
:102EE000895C41F080010278954BD15470470146CE
:102EF000944800EB4110C08AC0F30E007047914A1D
:102F000002EB4012D28AD30BDB038E4A02EB401253
:102F1000D3828C4A02EB4012D28AC1F30E031A43C9
:102F2000884B03EB4013DA82704700F00F01834AAD
:102F3000D176704700F00F01804A9176704751B109
:102F4000804A02EB4012928B42F008037D4A02EB6A
:102F50004012938309E07B4A02EB4012928B22F0ED
:102F60000803784A02EB40129383704710B50AB306
:102F7000744B03EB40139B8B43F02004714B03EB2A
:102F800040139C836F4B03EB40139B8B23F47064C3
:102F90006C4B03EB40139C836A4B03EB40139B8BFE
:102FA0004FF4706404EA01242343664C04EB40149C
:102FB000A38309E0634B03EB40139B8B23F02004B6
:102FC000604B03EB40139C8310BD70B504460D4667
:102FD00035B1012D0FD0022D18D0032D3ED124E0A4
:102FE000584800EB4410808B20F00401554800EB5A
:102FF0004410818333E0534800EB4410808B20F071
:103000000201504800EB4410818328E04E490857E4
:1030100000F022F94B4800EB4410808B40F0040193
:10302000484800EB4410818319E04749085700F0F5
:1030300013F9444800EB4410808B20F00401414810
:1030400000EB441081833F4800EB4410808B40F03C
:1030500002013C4800EB4410818300E000BF00BF48
:1030600070BD11B1394A42F820107047014633480B
:10307000C06801228A40104070B1324800EB411014
:10308000808B00F0800028B101F00F002B4A1077F0
:10309000002070470120FCE701F00F00274A10775D
:1030A0000020F6E7274A02EB401211617047014603
:1030B000244800EB411000697047224A02EB40129D
:1030C0001160704701461F4800EB411000687047CF
:1030D0001A48006840F4003018490860704710B57D
:1030E00000201649C8771948006810B117490868C8
:1030F000804710BD10B501201049C87713484068BB
:1031000010B112494868804710BD10B502200B4924
:10311000C8770E48806810B10C498868804710BD98
:1031200010B503200549C8770848C06810B10749A1
:10313000C868804710BD0000008004400080004047
:103140000010024000900040B29F00004002FF1FAC
:1031500010B504204649C8774648006910B1454972
:103160000869804710BD10B505204149C87741481E
:10317000406910B13F494869804710BD10B506202D
:103180003B49C8773B48806910B13A498869804714
:1031900010BD10B507203649C8773648C06910B150
:1031A0003449C869804710BD10B508203049C87738
:1031B0003048006A10B12F49086A804710BD10B529
:1031C00009202B49C8772B48406A10B12949486A21
:1031D000804710BD10B50A202549C8772548806A68
:1031E00010B12449886A804710BD10B50B202049D2
:1031F000C8772048C06A10B11E49C86A804710BD10
:1032000010B50C201A49C8771A48006B10B119493B
:10321000086B804710BD10B50D201549C8771548BB
:10322000406B10B11349486B804710BD10B50E209C
:103230000F49C8770F48806B10B10E49886B8047E3
:1032400010BD10B50F200A49C8770A48C06B10B1ED
:103250000849C86B804710BD00F01F020121914052
:103260004209920002F1E022C2F80011704700000A
:10327000008000404002FF1FFE4900E0491C01F0B1
:103280000F02002AFAD1FC4A1160FC4900E0491CF7
:1032900001F00F02002AFAD1F94A1160002011E072
:1032A0000022F54B1B6803EB40135A80F24B1B685E
:1032B00003EB40131A801822EF4B1B6803EB4013FB
:1032C0009A60401C0028EBD0EE4900E0491C01F058
:1032D0000F02002AFAD1002021E08022E84B1B686F
:1032E00003EB40131A800022E54B1B6803EB4013ED
:1032F0005A800ABAE24B1B6803EB40135A6001F58F
:10330000BE610022DE4B1B6803EB40131A614FF4D1
:103310000042DB4B1B6803EB40139A60401C002803
:10332000DBD0D54A1268128842F02002D24B1B68CB
:103330001A80D34A1268128842F02002D04B1B68D0
:103340001A80704770B503464FF0FF31002212E03B
:103350009C5C00250CE004F0010001F001067040C7
:1033600018B14908C848414000E0490864106D1C84
:10337000082DF0DB521C062AEADB880E70BD70B502
:10338000044620780006617840EA0140A17840EACE
:103390000120E1780843BD49086020790006617981
:1033A00040EA0140B949E439C1F8E8002046FFF796
:1033B000C9FF0546202D0CDBB44834300068A5F168
:1033C000200101228A401043B049E439C1F81801B4
:1033D00009E0AE48383000680121A9400843AB49F4
:1033E000E439C1F81C0170BD38B5A948C06A40F085
:1033F0000100A749C8620020A6490860694602206A
:10340000FFF75EF94FF47A710098B0FBF1F0B0FB72
:10341000F1F460000521B0FBF1F0401C7E2101EACF
:1034200040009A49E439486438BD30B503460C463B
:103430009648E438406840F40000944DE43D6860EC
:103440004FF0786000EAC35040F0A0404FF4F80518
:1034500005EA8445284340F4003095B228438B4D5B
:10346000E43D2864002107E08848E438406800F41F
:10347000000000B103E0491C87488142F4D300BF3B
:103480008548814201D1C8B230BD8048E4384068E7
:1034900040F400007D4DE43D68600020F4E730B565
:1034A00003460C467948E438406840F40000774D04
:1034B000E43D68604FF0786000EAC35040F0C040DF
:1034C0004FF4F80505EA8445284340F400306F4D79
:1034D000E43D2864002107E06C48E438406800F4CB
:1034E000000000B103E0491C6B488142F4D300BFE7
:1034F0006948814201D1C8B230BD6448E4384068AF
:1035000040F40000614DE43D68602846006C108086
:103510000020F1E738B5054600245D48C06A40F058
:1035200001005B49C86200205A490860FFF7A4FE09
:103530005A48407820F00400584948700120534907
:10354000E43948620020009005E000BFBDF80000AB
:10355000401C80B20090BDF800006428F5DBFFF746
:1035600043FF4FF4004200210120FFF75EFF0A20D5
:10357000FFF7EFF800BF0A20FFF7EBF8601C84B2FA
:10358000322C00DD11E04FF6FF7000906A460221F8
:103590000120FFF784FFBDF800004FF6FF7188425D
:1035A000E9D0BDF800000028E5D000BF6A46002140
:1035B0000120FFF774FF6A4602210120FFF76FFF29
:1035C0006A4603210120FFF76AFF6A4604210120B1
:1035D000FFF765FF6A4605210120FFF760FF6A4695
:1035E00006210120FFF75BFF6A4607210120FFF754
:1035F00056FF6A4615210120FFF751FF6A461B213D
:103600000120FFF74CFF6A461E210120FFF747FF0C
:103610006A461E210120FFF742FF4FF4905200211D
:103620000120FFF702FF6A4600210120FFF737FF64
:1036300000BF6420FFF78DF8601C84B21E2C00DDF3
:103640000AE06A4601210846FFF729FFBDF800009D
:1036500000F020000028ECD000BF002000900B49B3
:10366000383108600949E439C1F818010749403187
:10367000086015E08002FF1F3000FF1FB002FF1F2F
:103680003400FF1FE002FF1F2083B8EDE4000C4070
:103690000080044000D00040FFFF010000400640D1
:1036A000091F08602868FFF76AFE96489649086077
:1036B000002095498439C1F8C4006A461F210120C1
:1036C000FFF7EDFEBDF8000000F0100078B18E4865
:1036D000006820F002008C498439C1F88400084653
:1036E000D0F8C40040F00400C1F8C4000EE08648E1
:1036F000006840F0020084498439C1F8840008461B
:10370000D0F8C40020F00400C1F8C400BDF80000E7
:1037100000F0040038B17C48006840F400707A4939
:103720008439C1F884001020774984394862774889
:10373000006843F6F071084373498439C1F8880181
:1037400073480068C1F88001724800686F49091F1A
:1037500008604FF0FF306C49843948600846406A81
:1037600040F0020048624FF08070086138BD70B5CB
:1037700004460D4600BF67480068007800F08000EE
:103780000028F8D120BA6349096848602846FCF748
:1037900099FE60490968488000205E49096808610F
:1037A00060205C4909688860AC205A490968088033
:1037B0004FF0807054498439486170BD70B505463A
:1037C000002453480068007800F08000E0B95049B8
:1037D00009684888FCF776FE84B24D480068406866
:1037E00001BA2246284603F03BFB4948006800889E
:1037F00040F080004649096808804FF080704249D7
:1038000084390861204670BD0020FCE710B50446ED
:1038100034B1012C0DD0022C14D0032C2AD11DE080
:1038200039488438806820F00060374984398860DE
:1038300021E035488438806820F0007032498439AE
:10384000886018E04C2000F052F82F4884388068D7
:1038500040F000602C49843988600CE04D2000F075
:1038600046F829488438806840F000702649843939
:10387000886000E000BF00BF10BD08B126490860A5
:10388000704708B12549086070471F488438406870
:1038900000F0006048B11C488438406840F0006087
:1038A000194984394860012070470020FCE710B5B1
:1038B00015488438406840F00060134984394860F6
:1038C0001548006810B114490868804710BD10B54C
:1038D0000D488438406840F000700B4984394860D6
:1038E0000E48006810B10D490868804710BD00F00F
:1038F0001F02012191404209920002F1E022C2F828
:10390000001170470441F00584000C4088010C4010
:103910003400FF1F3000FF1F3800FF1F3C00FF1F57
:1039200010B5FE4B53F830301B68FC4C04EBC00460
:1039300064682343F94C54F8304023600023F84C6A
:1039400054F820402360F64B53F820305B6D43F071
:103950000403F34C54F8204063650023F04C54F802
:1039600020406360EE4C54F82040E364EC4B53F885
:10397000203099604FF0FF33E94C54F82040C4F8F0
:103980009830E74B53F820301B6823F01803E44CC1
:1039900054F820402360E24B53F820301B6843F07A
:1039A0000803DF4C54F820402360DD4B53F82030EF
:1039B0001B6823F00703DA4C54F820402360D84BEF
:1039C00053F820301B6802F007042343D44C54F80A
:1039D0002040236010BD014609B1012901D100201A
:1039E0007047022901D0032901D10120F8E70429F9
:1039F00001D0052901D10220F2E70320F0E72DE9EB
:103A0000F04104460E4615461F464FF00008062DAD
:103A100034D2DFE805F0030B131B232B3046FFF7EE
:103A2000DAFFC100012000FA01F828E03046FFF774
:103A3000D2FFC100022000FA01F820E03046FFF773
:103A4000CAFFC100042000FA01F818E03046FFF771
:103A5000C2FFC100102000FA01F810E03046FFF765
:103A6000BAFFC100202000FA01F808E03046FFF755
:103A7000B2FFC100402000FA01F800E000BF00BF23
:103A8000012F0AD1A64850F82400406E40EA0800F1
:103A9000A34951F82410486609E0A14850F82400D1
:103AA000406E20EA08009E4951F824104866BDE89F
:103AB000F08110B512B1012A3AD11CE0984B53F8AD
:103AC00020300C3353F8313023F00404944B53F876
:103AD00020300C3343F83140914B53F820300C33F5
:103AE00053F8313043F008048D4B53F820300C3339
:103AF00043F831401DE08A4B53F820300C3353F823
:103B0000313043F00404864B53F820300C3343F833
:103B10003140834B53F820300C3353F8313023F0CD
:103B200008047F4B53F820300C3343F8314000E059
:103B300000BF00BF10BD70B504460D461646062EE8
:103B40007ED2DFE806F0035BF1FDA2EF744850F887
:103B50002400406D20F00100714951F8241048659F
:103B60006F4850F82400D0F8800020F001006C4924
:103B700051F82410C1F88000694850F8240000680A
:103B800020F02000664951F824100860644850F87D
:103B900024000C3050F8350040F03001604850F8F7
:103BA00024000C3040F83510002229462046FFF74B
:103BB00080FF00231A4629462046FFF720FF0023F6
:103BC000012229462046FFF71AFF00230222294638
:103BD0002046FFF714FF0023032229462046FFF763
:103BE0000EFF0023042229462046FFF708FF00238A
:103BF000052229462046FFF702FFD3E1484850F846
:103C00002400406D20F00100454951F8241048651A
:103C1000434850F82400D0F8800020F001004049CB
:103C200051F82410C1F880003D4850F82400006885
:103C300040F020003A4951F824100860002300E0C9
:103C4000AFE11A4629462046FFF7D9FE002301229C
:103C500029462046FFF7D3FE0023022229462046AC
:103C6000FFF7CDFE0023032229462046FFF7C7FEBB
:103C70000023042229462046FFF7C1FE0023052227
:103C800029462046FFF7BBFE8CE1254850F824006A
:103C9000D0F8800020F00100214951F82410C1F82B
:103CA00080001F4850F82400406D20F001001C499E
:103CB00051F8241048651A4850F82400006820F094
:103CC0002000174951F824100860154850F82400C6
:103CD0000C3050F8350020F03001114850F8240025
:103CE0000C3040F8351000231A4629462046FFF7CD
:103CF00086FE0023012229462046FFF780FE00238E
:103D0000022229462046FFF77AFE00230322294695
:103D10002046FFF774FE0023042206E0DC9F00002B
:103D2000C49F0000EEE00BE07BE029462046FFF751
:103D300066FE0023052229462046FFF760FE31E19A
:103D4000F74850F82400D0F8800020F00100F44932
:103D500051F82410C1F88000F14850F824000068A0
:103D600020F02000EE4951F824100860EC4850F88B
:103D70002400406D40F00400E94951F824104865E2
:103D8000E74850F82400406D40F00100E44951F844
:103D9000241048650123002229462046FFF72FFE04
:103DA00001231A4629462046FFF729FE0023022256
:103DB00029462046FFF723FE0023032229462046FA
:103DC000FFF71DFE0123042229462046FFF717FEB8
:103DD0000023052229462046FFF711FED04850F85F
:103DE00024000C3050F8350040F03001CC4850F839
:103DF00024000C3040F83510002229462046FFF7F9
:103E000058FE0320C64951F824108865C44850F86C
:103E10002400806D40F08000C14951F8241088656D
:103E2000C0E0BF4850F82400D0F8800020F0010026
:103E3000BB4951F82410C1F88000B94850F824005B
:103E4000006820F02000B64951F824100860B448FA
:103E500050F82400406D40F00400B14951F824109E
:103E60004865AF4850F82400406D40F00100AC496F
:103E700051F8241048650123002229462046FFF707
:103E8000BEFD0023012229462046FFF7B8FD00238E
:103E9000022229462046FFF7B2FD002303222946CD
:103EA0002046FFF7ACFD0123042229462046FFF7F8
:103EB000A6FD0023052229462046FFF7A0FD9848CD
:103EC00050F824000C3050F8350040F03001944890
:103ED00050F824000C3040F83510002229462046C6
:103EE000FFF7E7FD03208E4951F8241088658C48C0
:103EF00050F82400806D40F08000894951F824106A
:103F000088654FE0864850F82400D0F8800040F0E3
:103F10000100834951F82410C1F88000804850F80E
:103F20002400006820F020007D4951F8241008602A
:103F30007B4850F82400406D40F00400784951F867
:103F400024104865764850F82400406D40F0010088
:103F5000734951F824104865012300222946204660
:103F6000FFF74DFD0023012229462046FFF747FDBC
:103F70000023022229462046FFF741FD00230322A9
:103F800029462046FFF73BFD002304222946204610
:103F9000FFF735FD0023052229462046FFF72FFDB8
:103FA00000E000BF00BF70BDF7B50E4617466C4677
:103FB000217801F0070004224FF6FF71FFF7B0FCF3
:103FC000217801F0070005220021FFF7B4FD16B1AA
:103FD000012E48D123E0207800F00700504951F825
:103FE0002000D0F8800020F02000217801F00701A7
:103FF0004B4A52F82110C1F88000207800F00700E9
:10400000114651F82000D0F8800020F010002178EF
:1040100001F0070152F82110C1F8800024E0207857
:1040200000F007003E4951F82000D0F8800040F031
:104030002000217801F00701394A52F82110C1F817
:104040008000207800F00700114651F82000D0F8D9
:10405000800040F01000217801F0070152F8211093
:10406000C1F8800000E000BF00BF17B1012F26D1CA
:1040700012E0207800F00700294951F82000D0F81C
:10408000800020F00800217801F00701244A52F84E
:104090002110C1F8800013E0207800F007002049CB
:1040A00051F82000D0F8800040F00800217801F09D
:1040B00007011B4A52F82110C1F8800000E000BF40
:1040C00000BF002523E02388C3F38212C3F34423F7
:1040D0002B44D9B22378C3F3C20000F01FFB22881F
:1040E000C2F344222A44D1B22278C2F3C200012290
:1040F00000F039FB2288C2F344222A44D1B222784C
:10410000C2F3C200012200F07FFB681CC5B2206828
:10411000C0F38430A842D6DC207800F00700FEBD52
:10412000C49F0000FE4B53F82030D3F88030C3F317
:1041300080031370FA4B53F820305B689BB20B601E
:1041400070470021F64A52F820205160704770B540
:104150001346F34C54F82040A4685C4342F21075B7
:10416000B4FBF5F2EE4C54F82040646E04F00134D8
:104170007CB30C4601EBD4756D10A1EB450585B100
:104180000026E74C54F820400C344D1E04EBC504C7
:104190006660E34C54F820400C3404EBC1046260C8
:1041A0000FE00025DE4C54F820400C3404EBC10431
:1041B0006560DB4C54F820400C344D1C04EBC50406
:1041C00062604FF0FF34D64D55F82050C5F8984046
:1041D00007E0FFE7D24C54F820400C3404EBC10454
:1041E000626070BD2DE9F74F82B089469046002786
:1041F00002AC00250DE02388C3F38212C3F34423ED
:104200002B44D9B22378C3F3C20000F087FA681CAC
:10421000C5B22068C0F38430A842ECDC4FF6FF7BC7
:1042200001A90220FEF74CFA0198B0FBF8F05946BC
:10423000B0FBF1F60198B0FBF8F0B0FBF6F0B0F58A
:10424000803F00D3761C00251BE00120A840301AD7
:1042500003D50120A840801B02E00120A840301AAD
:1042600058450CD22F460120A840301A03D5012012
:10427000A840801B02E00120A840301A8346681C39
:10428000C5B2072DE1DB0120B840B04201DA781C4D
:10429000C7B2072F00DD07270120B8400199B1FB05
:1042A000F0F0B0FBF8F0A0F1010A217801F007006E
:1042B0003A465146FFF734FBB9F1000F06D0B9F189
:1042C000010F0DD0B9F1020F1ED113E02268C2F325
:1042D000C441227802F007000022FFF72CFC14E012
:1042E0002268C2F3C441227802F007000222FFF7DD
:1042F00022FC0AE02268C2F3C441227802F00700DF
:104300000322FFF718FC00E000BF00BF2268C2F3E1
:10431000C441227802F0070041F28832FFF717FF0C
:10432000207800F0070005B0BDE8F08F73B50E46A9
:104330006C4600250CE02388C3F38212C3F34423A8
:104340002B44D9B22378C3F3C20000F0E7F96D1C07
:104350002068C0F38430A842EDD8217801F007002E
:1043600032464FF6FF71FFF7DBFA2268C2F3C44111
:10437000227802F007000422FFF7DDFB7CBD10B5B8
:10438000674B53F820300C3353F8313023F00C04D2
:10439000634B53F820300C3343F8314022B1012AEB
:1043A0001FD0022A49D139E05D4B53F820300C333D
:1043B00053F8313023F00804594B53F820300C33B4
:1043C00043F83140564B53F820300C3353F831301A
:1043D00043F00404524B53F820300C3343F831407F
:1043E0002CE04F4B53F820300C3353F8313043F06E
:1043F00008044B4B53F820300C3343F83140484B02
:1044000053F820300C3353F8313023F00404444B7C
:1044100053F820300C3343F831400FE0404B53F851
:1044200020300C3353F8313043F00C043C4B53F83C
:1044300020300C3343F8314000E000BF00BF10BD16
:104440000246374850F822000C3000EBC1004068AB
:104450007047334A52F820205160704711B1314AF9
:1044600042F82010704730B511297DD2DFE801F005
:1044700009202122232425262748494A4B4C4D4E0A
:104480004F0052B1264B53F820301B6843F04003D5
:10449000234C54F82040236009E0214B53F820308E
:1044A0001B6823F040031E4C54F82040236084E036
:1044B00000BF00BF00BF00BF00BF00BF00BF7AB198
:1044C000174B53F820300C334C1E53F8343043F064
:1044D0004005134B53F820300C3343F834500EE0B2
:1044E0000F4B53F820300C334C1E53F8343023F06C
:1044F00040050B4B53F820300C3343F834505CE04C
:1045000000BF00BF00BF00BF00BF00BF00BFC2B1FF
:10451000034B53F820400C34A1F1090304E00000E0
:10452000C49F0000E008FF1F54F8333043F04005FB
:10453000764B53F820400C34A1F1090344F8335072
:1045400011E0724B53F820400C34A1F1090354F8E8
:10455000333023F040056D4B53F820400C34A1F16B
:10456000090344F8335000E026E092B1674B53F85A
:1045700020400C34A1F1090354F8333043F0010515
:10458000624B53F820400C34A1F1090344F8335036
:1045900011E05E4B53F820400C34A1F1090354F8AC
:1045A000333023F00105594B53F820400C34A1F16E
:1045B000090344F8335000E000BF00BF544C2356B9
:1045C00003F01F050124AC405D09AD0005F1E025B5
:1045D000C5F8004100BF30BD10B54E48006810B1AD
:1045E0004C490868804749480068006800F0C000EE
:1045F00038B146480068006820F0800043490968E7
:104600000860002415E0414800680C3050F8340080
:1046100000F0C00060B13D4800680C3050F8340034
:1046200020F08001394800680C3040F8341004E074
:10463000641C39480068A042E5D800BF10BD10B521
:104640003448406810B13349486880472F48406873
:10465000006800F0C00038B12C484068006820F0C5
:1046600080002A4949680860002415E0274840680E
:104670000C3050F8340000F0C00060B123484068AE
:104680000C3050F8340020F08001204840680C3095
:1046900040F8341004E0641C1F484068A042E5D88C
:1046A00000BF10BD10B51B48806810B1194988685B
:1046B000804716488068006800F0C00038B1134891
:1046C0008068006820F08000104989680860002434
:1046D00015E00E4880680C3050F8340000F0C0003F
:1046E00060B10A4880680C3050F8340020F0800136
:1046F000064880680C3040F8341004E0641C06481A
:104700008068A042E5D800BF10BD0000C49F000033
:10471000F49F0000E008FF1FD09F000010B5F94B88
:104720009B6BF94C54F820402343F64CA363F74BA2
:1047300053F8203053F8213023F4E063F34C54F85D
:10474000204044F82130F14B53F8203053F8213009
:104750004FF4E06404EA02242343EC4C54F8204074
:1047600044F8213010BD10B5E64B9B6BE64C54F875
:1047700020402343E34CA36322B1012A0FD0022A35
:104780003FD125E0E14B53F8203053F8213023F09E
:104790000203DE4C54F8204044F8213032E0DB4B79
:1047A00053F8203053F8213043F00203D74C54F82B
:1047B000204044F82130D54B53F8203053F82130B5
:1047C00043F00103D14C54F8204044F8213019E063
:1047D000CE4B53F8203053F8213043F00203CB4C3A
:1047E00054F8204044F82130C84B53F8203053F897
:1047F000213023F00103C54C54F8204044F8213007
:1048000000E000BF00BF10BD10B5BE4B9B6BBE4C9F
:1048100054F820402343BB4CA363012A0CD1BB4B6B
:1048200053F8203053F8213043F02003B74C54F8AC
:10483000204044F821300BE0B44B53F8203053F8BB
:10484000213023F02003B14C54F8204044F82130AB
:1048500010BD10B5AB4B9B6BAB4C54F820402343C1
:10486000A84CA363012A0CD1A84B53F8203053F86D
:10487000213043F01003A54C54F8204044F8213077
:104880000BE0A24B53F8203053F8213023F01003F3
:104890009E4C54F8204044F8213010BD10B5994B7F
:1048A0009B6B994C54F820402343964CA363012AF8
:1048B0000BD1974B53F820305B6901248C40234384
:1048C000934C54F8204063610AE0914B53F8203038
:1048D0005B6901248C40A3438D4C54F820406361F4
:1048E00010BD10B504466078052854D2DFE800F00A
:1048F000031323334300217920780022FFF733FF8D
:10490000217920780022FFF77FFF2179207800228B
:10491000FFF7C4FF40E0217920780222FFF723FF50
:10492000217920780022FFF76FFF2179207800227B
:10493000FFF7B4FF30E0217920780122FFF713FF61
:10494000217920780022FFF75FFF2179207800226B
:10495000FFF7A4FF20E0217920780122FFF703FF71
:10496000217920780122FFF74FFF21792078012259
:10497000FFF794FF10E0217920780022FFF7F3FE83
:10498000217920780022FFF73FFF2179207801224A
:10499000FFF784FF00E000BF00BF217920780122EB
:1049A000FFF7BCFE10BD7CB504460D461646E0B2CE
:1049B0008DF800008DF8016001956846FFF791FFC2
:1049C000E0B27CBD10B55AB1514B53F820305B6852
:1049D00001248C4023434E4C54F8204063600AE08D
:1049E0004B4B53F820309B6801248C402343484CA8
:1049F00054F82040A36010BD0246454850F82200FC
:104A00004069C84000F0010038B1414850F8220028
:104A10000068C84000F0010070473D4850F822008F
:104A20000069C84000F00100F6E7394A52F820203A
:104A3000D26801238B401A43354B53F82030DA609B
:104A400070470146324850F8210000697047304AEB
:104A500052F820201160704770B504460D46164686
:104A60002848806B284951F8241008432549886359
:104A7000264850F8240050F8250020F470202349DF
:104A800051F8241041F825000A2E7AD2DFE806F00A
:104A90000511121F2C4657687A8B1E49085700F0E3
:104AA0001F02012191401C4A430942F8231000BF14
:104AB0008BE08AE0154850F8240050F8250040F4B7
:104AC0008030124951F8241041F825007DE00F484C
:104AD00050F8240050F8250040F400300B4951F8FC
:104AE000241041F8250070E0084850F8240050F8E0
:104AF000250040F44030054951F8241041F82500C4
:104B000063E000000080044020A000000CA0000032
:104B1000F89F000034A0000080E100E0674850F8F2
:104B2000240050F8250040F40020644951F8241076
:104B300041F825006249085700F0B5F845E05F48A4
:104B400050F8240050F8250040F410205B4951F83B
:104B5000241041F825005A49085700F0A4F834E021
:104B6000564850F8240050F8250040F420205349BE
:104B700051F8241041F825005149085700F093F8E6
:104B800023E021E04D4850F8240050F8250040F47F
:104B900030204A4951F8241041F825004849085767
:104BA00000F081F811E0454850F8240050F8250045
:104BB00040F44020414951F8241041F82500404973
:104BC000085700F070F800E000BF00BF70BD3D4A1C
:104BD000926B3D4B53F820301A433A4B9A6311B114
:104BE0003A4A42F82010704710B534480068D0F8AF
:104BF000A0404FF0FF3031490968C1F8A0003348A8
:104C0000006818B1314801682046884710BD10B5CA
:104C10002A484068D0F8A0404FF0FF302749496843
:104C2000C1F8A0002948406818B1284841682046CA
:104C3000884710BD10B521488068D0F8A0404FF0DB
:104C4000FF301E498968C1F8A0002048806818B16B
:104C50001E4881682046884710BD10B51748C068B7
:104C6000D0F8A0404FF0FF301449C968C1F8A00047
:104C70001648C06818B11548C1682046884710BD5D
:104C800010B50E480069D0F8A0404FF0FF300B4936
:104C90000969C1F8A0000D48006918B10B48016905
:104CA0002046884710BD00F01F02012191404209B3
:104CB000920002F1E022C2F8001170470CA000003F
:104CC00034A000000080044020A00000EC08FF1F7A
:104CD0002DE9F04F84460C4615461423B4FBF3F33C
:104CE000AB4201D2BDE8F08F29464FF0FF324FF0C2
:104CF00000084FF00009002025E0012606FA00FA1E
:104D000000231CE0DFF83CB40BEB830BBBF802B0D4
:104D10000BFB0AFBB4FBFBF6B14202D9A1EB060B7D
:104D200001E0A6EB010B5F46974207D28046DFF811
:104D300014B41BF823903A4607B902E05B1C322BEF
:104D4000E0D300BF401C022801D8002AD5D109F0C9
:104D50003F03C02606EA88163343FB4E56F82C6004
:104D6000737000BFBEE738B50446F848406BF84A98
:104D7000216852F821100843F4494863F249206839
:104D800051F82000807820F08000EF4A216852F826
:104D90002110887069460220FDF792FCD4E90002D8
:104DA0000099FFF795FFE849206851F820008078C6
:104DB00040F08000E44A216852F82110887038BD24
:104DC00073B582B00E4602AC0196207800F0070061
:104DD0000090002523E02388C3F38212C3F3442309
:104DE0002B44D9B22378C3F3C200FFF797FC228883
:104DF000C2F344222A44D1B22278C2F3C200012273
:104E0000FFF7B1FC2288C2F344222A44D1B22278AF
:104E1000C2F3C2000122FFF7F7FC681CC5B220688C
:104E2000C0F38430A842D6DC6846FFF79CFF2078A8
:104E300000F0070004B070BDC34951F82010897814
:104E400041F01001C04A52F820209170BE4951F83B
:104E50002010897841F02001BB4A52F8202091703F
:104E60007047B94951F82010897841F00401B64AD9
:104E700052F8202091707047B34951F8201089787A
:104E800021F02001B04A52F820209170AE4951F82B
:104E90002010897821F01001AB4A52F8202091703F
:104EA0007047A94A52F82020117170470146A64860
:104EB00050F82100007970474B06190E012A02D1E3
:104EC00001F0FE0101E041F001019F4B53F8203059
:104ED000197170470146002200BF01E0521C00BF5B
:104EE000994850F82100C07800F0800018B941F2CC
:104EF00088308242F2D3002201E0521C00BF924867
:104F000050F82100C07800F0020018B941F2883052
:104F10008242F2D38C4850F82100C07840F0020061
:104F2000894B53F82130D87041F27E30824201D94A
:104F300002207047844850F82100C07800F001003A
:104F400008B10120F5E70020F3E701290AD17E4AE4
:104F500052F82020927842F010027B4B53F8203018
:104F60009A7009E0784A52F82020927822F01002D4
:104F7000754B53F820309A707047734951F82010E0
:104F8000897841F00801704A52F8202091707047EA
:104F90006D4951F82010897821F008016A4A52F8C9
:104FA00020209170704730B50A4632B1012A1AD0DC
:104FB000022A23D0032A44D138E0664B195601F067
:104FC0001F040123A340644C4D0944F8253000BF61
:104FD0005D4951F82010897821F040015A4B53F86F
:104FE000203099702EE0584951F82010897821F02E
:104FF0000101554B53F82030997023E0554B195659
:1050000001F01F040123A3404C09A40004F1E02493
:10501000C4F8003100BF4C4951F82010897841F0A4
:105020004001494B53F8203099700BE0464951F844
:105030002010897841F00101434B53F820309970DA
:1050400000E000BF00BF30BD11B1444A42F820105B
:10505000704701463C4850F82100C07800F020001D
:1050600008B1002070470120FCE72DE9FF4F824680
:105070008B461F46DDE90D6800250DF108095046F5
:10508000FFF7DAFE012259465046FFF715FF50465A
:10509000FFF720FF88B15046FFF7EEFE00BF00E0AB
:1050A0006D1C5046FFF7D5FF18B942F210708542CB
:1050B000F6D3012004B0BDE8F08FB8F1000F0AD19B
:1050C0005046FFF7D9FE00BF5046FFF7C2FF002849
:1050D000FAD00020EEE700241AE019F8011B504630
:1050E000FFF7DFFE5046FFF7F5FE78B15046FFF7B9
:1050F000C3FE002500E06D1C5046FFF7AAFF18B95B
:1051000042F210708542F6D30220D3E7601CC4B28D
:10511000BC42E2D35046FFF7A4FE00225946504657
:10512000FFF7CAFE5046FFF7D5FEC8B15046FFF75D
:10513000A3FE002500BF5046FFF78BFF0028FAD0E2
:105140000320B7E74EA000003CA000000080044010
:1051500044A000004CA0000080E100E04000FF1FE0
:1051600000215046FFF7F1FE5046FFF79FFE5046E4
:10517000FFF70EFF5046FFF7ADFE00240CE050464F
:10518000FFF794FE06F8010B5046FFF701FF50466B
:10519000FFF7A0FE601CC4B2A8F10100A042EED847
:1051A0005046FFF783FE30705046FFF7E6FE50464C
:1051B000FFF790FE5046FFF75FFE00BF5046FFF737
:1051C00048FF0028FAD0002074E72DE9FF47804609
:1051D00089461D46DDE90C6A002402AF4046FFF710
:1051E0002BFE012249464046FFF766FE4046FFF788
:1051F00071FE88B14046FFF73FFE00BF00E0641C2F
:105200004046FFF726FF18B942F210708442F6D3E9
:10521000012004B0BDE8F08718E017F8011B4046F4
:10522000FFF73FFE4046FFF755FE78B14046FFF7D7
:1052300023FE002400E0641C4046FFF70AFF18B973
:1052400042F210708442F6D30220E2E72800A5F172
:105250000105E2D118E016F8011B4046FFF721FED8
:105260004046FFF737FE78B14046FFF705FE0024C1
:1052700000E0641C4046FFF7ECFE18B942F21070E3
:105280008442F6D30320C4E75FEA0A00AAF1010AC8
:10529000E1D14046FFF7F0FD002400BF4046FFF794
:1052A000D8FE0028FAD00020B3E77FB582B00446CC
:1052B0000D461646012005A903463246CDE90010E9
:1052C00029462046FFF781FF06B070BDFCB50546B4
:1052D0000E4617461C46012003463A463146CDE9A4
:1052E00000402846FFF7C1FEC0B2FCBD2DE9F041E9
:1052F0000746884615461E4600243846FFF79CFDA3
:10530000012241463846FFF7D7FD3846FFF7E2FD58
:1053100080B13846FFF7B0FD00BF00E0641C38469E
:10532000FFF797FE18B942F210708442F6D30120BD
:10533000BDE8F08129463846FFF7B3FD3846FFF750
:10534000C9FD78B13846FFF797FD002400E0641CE2
:105350003846FFF77EFE18B942F210708442F6D349
:105360000220E5E73846FFF787FD00BF3846FFF724
:1053700070FE0028FAD000243846FFF75DFD0022B9
:1053800041463846FFF798FD3846FFF7A3FD58B170
:105390003846FFF771FD00BF00BF3846FFF759FEE2
:1053A0000028FAD00320C3E700213846FFF7CDFDDF
:1053B0003846FFF77BFD3846FFF7EAFD3846FFF732
:1053C00089FD3846FFF772FD30703846FFF7D5FD8E
:1053D0003846FFF77FFD3846FFF74EFD00BF3846E1
:1053E000FFF737FE0028FAD00020A1E7F0B5044609
:1053F0000D4616461F463B46324629462046FFF7D5
:1054000054FFF0BD10B50F480068C07840F00200AE
:105410000C490968C8700C48006810B10A4908684E
:10542000804710BD10B507484068C07840F00200C2
:1054300004494968C8700448406810B10249486886
:10544000804710BD3CA000004000FF1F8A49896BC7
:1054500041F00101884A91630021884A116051603E
:1054600091601146096821F0010111601146096837
:1054700021F0040111601146096821F00201116058
:1054800005215160018891601146096841F00101D0
:10549000116070477849896B41F00101764A916348
:1054A0000021764A1160516091601146096821F02F
:1054B000010111601146096821F0040111601146D3
:1054C000096841F002011160052151600188916075
:1054D000817821B1012907D0022913D10BE0674956
:1054E0000968664A11600EE06449096841F01001DC
:1054F000624A116007E06149096841F020015F4A92
:10550000116000E000BF00BFC17811B101290ED1C8
:1055100006E05A49096821F00801584A116007E07D
:105520005649096841F00801544A116000E000BF83
:1055300000BF5249096841F00101504A11607047AB
:1055400010B501464C48806B40F001004A4A906318
:1055500011B1012928D112E0494A92F9000000F066
:105560001F0301229A40474B440943F8242000BFFF
:105570004248006820F04000404A106015E0404A70
:1055800092F9000000F01F0301229A4043099B009A
:1055900003F1E023C3F8002100BF3848006840F061
:1055A0004000364A106000E000BF00BF10BD324925
:1055B000896B41F00101304A916308B132490860BA
:1055C00070472E490C3141F2342008602B48C068E6
:1055D00080B2704731B582B002AC4FF6FF70ADF8C3
:1055E00004002068C0F3C440012802D0022808D17A
:1055F00003E001208DF8060004E002208DF806008B
:1056000000E000BF00BF00208DF8070000250CE07F
:105610002388C3F38212C3F344232B44D9B22378E3
:10562000C3F3C200FFF77AF86D1C2068C0F3843022
:10563000A842EDD801A8FFF72DFF207800F0070061
:105640003EBD0E48006820F001000C490860084685
:10565000006840F001000860704710B50748006816
:1056600040F08000054908600748006810B106490D
:105670000868804710BD000000800440000004401E
:1056800016A1000080E100E04800FF1F10B50446AD
:105690007048C06B40F400006E49C8636E49022038
:1056A000FDF70EF86C4800686C49B0FBF1F06A49F0
:1056B0000860084600684FF47A71484368490860FA
:1056C000084600680860644960680968484365499D
:1056D000227801EB021108606248217800EB01108A
:1056E000806840F001015F48227800EB0210816081
:1056F0005D48006820F002005B49086010BD7CB581
:1057000005460C468DF8005001946846FFF7BEFF31
:105710007CBD10B50A464F49C96B41F400014D4BA1
:10572000D96312B1012A2BD10AE04E4901EB0011D5
:10573000896821F002034B4901EB00118B6020E0E6
:105740004A4B195601F01F040123A3404C09A40041
:1057500004F1E024C4F8003100BF42490C3109686B
:1057600041F001033F490C310B603E4901EB001150
:10577000896841F002033B4901EB00118B6000E0B6
:1057800000BF00BF10BD374901EB0011896821F04F
:105790000102344901EB00118A60324901EB00112A
:1057A000896841F001022F4901EB00118A607047BE
:1057B00001462C4800EB011040687047254AD26B27
:1057C00042F40002234BDA6311B1294A42F8201057
:1057D000704710B523480C30006840F001012148A3
:1057E0000C3001602248006810B1214908688047E8
:1057F00010BD10B51B481C30006840F0010119486D
:105800001C3001601A48406810B119494868804747
:1058100010BD10B513482C30006840F0010111484C
:105820002C3001601248806810B1114988688047A7
:1058300010BD10B50B483C30006840F0010109482C
:105840003C3001600A48C06810B10949C868804707
:1058500010BD0000008004404C00FF1F40420F00BC
:105860005000FF1F007103400070034017A10000AB
:105870000009FF1F0146EA4AD26B42F00052E84B92
:10588000DA63E84A126922F48072E64B1A610A78F8
:10589000012A06D0022A0BD0032A10D0042A1CD1D8
:1058A00014E0E04A126942F40052DE4B1A6115E03E
:1058B000DC4A126942F48052DA4B1A610EE0D94A8E
:1058C000126942F40062D74B1A6107E0D54A1269A7
:1058D00042F48062D34B1A6100E000BF00BFD14A9E
:1058E000126942F48072CF4B1A61002000E0401C24
:1058F000B0F5C04FFBD3CB4A526942F01002C94BFE
:105900005A61704708B5032000906846FFF7B2FF60
:1059100008BDF0B503460D46591E002604E0C248F6
:1059200050F826000244761CAE42F8DB022D10DD52
:105930004FF4C87093FBF0F400FB143040B103F057
:10594000030030B9642093FBF0F400FB143000B185
:10595000521C642091FBF0F00C46CF1701EB9777B7
:1059600001EBA707381A4FF4C87791FBF7F73844D3
:105970001044072790FBF7FC07FB1C00F0BD10B597
:105980000288A2F2B27240F26D135A430A60028892
:10599000D31702EB93739B10A3F5F6730C682344A3
:1059A0000B604388A14C34F813300A681A440A602B
:1059B00083880A681A440A60027802F003022AB94E
:1059C0004288022A02D80A68521E0A60984B0A6866
:1059D0005A43C388C3EB4314C4EB032302EB031203
:1059E0000389C3EB031302EB8302837A1A440A6030
:1059F0000A68521C0A6010BDF0B505462A688C4F33
:105A0000B2FBF7F3B2FBF7FC07FB1C224FF4616714
:105A1000B2FBF7F7CF804FF46167B2FBF7FC07FBEF
:105A20001C223C27B2FBF7F70F813C27B2FBF7FCA7
:105A300007FB1C278F7240F2B2770F8040F26D1681
:105A40000CE09B1B0F887F1C0F800F7807F003076B
:105A500017B140F26D1601E04FF4B776B342F0D8BB
:105A60000F7807F003070FB1724C00E0724C012071
:105A700007E0275C9F4201D3488004E0275CDB1BE2
:105A8000401C0C28F5D900BF8B80F0BD38B504460A
:105A900004B938BD63480068009021466846FFF7A6
:105AA000ABFF00BFF5E75F48006808B10020704712
:105AB0000120FCE738B5044604B938BD69462046E4
:105AC000FFF75DFF0098401E5649886000BFF4E76D
:105AD000544AD26822F47F42524BDA601A46D268A6
:105AE00022F0FF02DA601A46D2684FF47F4303EADD
:105AF00000231A434B4BDA601A46D268CBB21A43E2
:105B0000484BDA60704747480068704745488068EE
:105B1000704738B5044604B938BD69462046FFF7DA
:105B20002EFF4048406920F010003E49486100982F
:105B300008600846406940F01000486100BFEBE78C
:105B40003849496921F01001364A5161114608600F
:105B5000496941F010015161704710B5044634B1F4
:105B6000012C15D0022C1AD0032C22D106E02D488E
:105B7000C06920F002002B49C8611BE02948C069B8
:105B800040F002002749C861422000F03DF811E0D2
:105B90002448C06920F004002249C8610AE0214875
:105BA000C06940F004001F49C861422000F02CF891
:105BB00000E000BF00BF10BD08B120490860704779
:105BC00010B51E48006810B11C4908688047154888
:105BD000C06900F0020040B11248406900F00200C4
:105BE00018B1104800680F4908600E48C06900F0FD
:105BF000040040B10B48406900F0040018B10948A6
:105C000080680849886010BD00F01F0201219140A2
:105C10004209920002F1E022C2F800117047000030
:105C20000080044000D003405800FF1F36A1000050
:105C3000805101001CA1000029A100005400FF1F99
:105C40002DE9FF4F82B004468C46DDF810B0FE48C7
:105C500050F82400006800F0004018B9002006B099
:105C6000BDE8F08F4FF0FF324FF000084FF0000911
:105C70000120019000200090002126E000231FE079
:105C8000012518E0F14850F82100DFF8C4E35EF880
:105C900023E000FB0EFE05986843B0FBFEF6B3451B
:105CA00008D3ABEB060A524504D9524688469946BA
:105CB000009601956D1C032D01D2002AE2D15B1CD8
:105CC000102B01D2002ADBD1491C042901D2002A61
:105CD000D4D1DD4850F824000C3050F82C70DD4849
:105CE00007400198401E58B14FF4403000EA084088
